:020000040800F2
:10000000A00F0020F1020008E51600085D0D0008B1
:10001000E1160008590A0008052B0008000000003E
:10002000000000000000000000000000390200088D
:100030005D0A0008000000008D020008351D000860
:100040000B0300080B0300080B0300080B03000858
:100050000B0300080B0300080B0300080B03000848
:100060000B0300080B030008610A00080B030008DB
:100070000B0300080B0300080B0300080B03000828
:100080000B0300080B0300080B0300080B03000818
:100090000B0300080B0300080B0300080B03000808
:1000A0000B0300080B0300080B0300080B030008F8
:1000B0000B030008952200080B0300080B0300083F
:1000C0000B0300080B0300080B0300080B030008D8
:1000D0000B0300084D2600080B0300080B03000863
:1000E0000B0300080B0300080B0300080B030008B8
:1000F0000B0300080B0300080B0300080B030008A8
:100100000B0300080B0300080B0300080B03000897
:100110000B0300080B0300080B0300080B03000887
:100120000B0300080B0300080B0300080B03000877
:100130000B0300080B0300080B0300080B03000867
:100140000B0300080B0300080B0300080B03000857
:100150000B0300080B0300080B030008D52600085A
:100160000B0300080B0300080B0300080B03000837
:100170000B0300080B0300080B0300080B03000827
:100180000B0300080B03000800F002F800F044F82D
:100190000AA090E8000C82448344AAF10107DA45E2
:1001A00001D100F039F8AFF2090EBAE80F0013F0F0
:1001B000010F18BFFB1A43F001031847646E0000DB
:1001C000846E0000103A24BF78C878C1FAD852076C
:1001D00024BF30C830C144BF04680C6070470000C1
:1001E0000023002400250026103A28BF78C1FBD840
:1001F000520728BF30C148BF0B607047642900F028
:10020000F380732900F04083002070471FB506F08B
:10021000ADF81FBD10B510BD00F0D0FB1146FFF7C3
:10022000F5FF03F088FF00F0EEFB03B4FFF7F2FFE9
:1002300003BC02F0ACFD00002A4B19680868B0E866
:10024000F04F80F30988BFF36F8F4FF0000080F309
:10025000118870470000000006480068006880F3BD
:10026000088862B661B6BFF34F8FBFF36F8F00DFB0
:1002700000BF00BF08ED00E0DFF80C00016841F4AA
:1002800070010160704700BF88ED00E0EFF3098066
:10029000BFF36F8F134B1A681EF0100F08BF20EDCD
:1002A000108A20E9F04F106008B44FF0500080F33E
:1002B0001188BFF34F8FBFF36F8F05F0E3F94FF055
:1002C000000080F3118808BC19680868B0E8F04F96
:1002D0001EF0100F08BFB0EC108A80F30988BFF33E
:1002E0006F8F704758000020EFF3058070470000C3
:1002F0000948804709480047FEE7FEE7FEE7FEE7BA
:10030000FEE7FEE7FEE7FEE7FEE7FEE704480549F5
:10031000054A064B70470000511E0008890100087D
:10032000A0090020A00F0020A00B0020A00B00209F
:10033000704710B54C1084EA530404D54042C1F113
:10034000000138BF491E1B4204D55242C3F10003CD
:1003500038BF5B1E00F09DF914F0804F04D040427E
:10036000C1F1000138BF491E14F0004F04D05242C1
:10037000C3F1000338BF5B1E10BD00000FB4044979
:1003800010B503AA029800F083FA10BC5DF814FBC4
:100390003C00002070B50C460546012A05D028789F
:1003A000800600D5EA69002302E0012305E05B1C1A
:1003B000934202D2E05C0028F9D1A869E618C01A7D
:1003C000A861286A184428622846AFF3008004E038
:1003D000D5E9012114F8010B9047B442F8D328461F
:1003E000AFF3008070BD00002DE9F0410646002407
:1003F00010687529314616A510D0AFF3008000288B
:1004000002DA404213A507E031688A0701D512A538
:1004100002E0490704D511A5012401E0AFF30080F3
:1004200000210A2206F1240709E0B0FBF2FCB0FB30
:10043000F2F302FB1C00303078541846491C0028A7
:10044000F3D123462A463046BDE8F04100F098B982
:10045000000000002D0000002B0000002000000024
:100460002DE9F05F894604464FF0000ADFF824B119
:10047000FB44C0F820A02046E168884700287DD0D2
:10048000252806D0D4E901219047206A401C20622B
:10049000F1E700255F462046E168884720280646A8
:1004A00007DB312E05D2B81910F8200C08B105432E
:1004B000F1E7A80701D525F00405C4F81CA0002722
:1004C000C4F818A02A2E09D0304602F059FC38B3DF
:1004D00004EB8708303EC8F8186019E059F8041B8F
:1004E000204604EB87029161E1688847012F0646A8
:1004F00018D1E069002820DA25F020051DE0D8F8A1
:10050000180000EB800006EB40003038C8F81800F7
:100510002046E1688847064602F032FC0028EED10A
:10052000012F0AD02E2E08D12046E16888477F1C73
:100530000646022F45F02005C4DBA069002803DA37
:10054000404245F00105A061E80701D025F0100503
:10055000A6B1A6F14100192802D8203645F400655D
:100560004A463146204625604D46FFF747FE60B1BA
:10057000012807D0ED1D25F0070000E007E000F19D
:10058000080978E705F1040975E730467AE7206A3B
:10059000BDE8F09F4A6B000040EA010310B59B07DD
:1005A0000FD1042A0DD310C808C9121F9C42F8D0DD
:1005B00020BA19BA884201D9012010BD4FF0FF308E
:1005C00010BD1AB1D30703D0521C07E0002010BDA4
:1005D00010F8013B11F8014B1B1B07D110F8013B30
:1005E00011F8014B1B1B01D1921EF1D1184610BD11
:1005F000032A40F2308010F0030C00F0158011F84F
:10060000013BBCF1020F624498BF11F801CB00F826
:10061000013B38BF11F8013BA2F1040298BF00F87A
:1006200001CB38BF00F8013B11F0030300F0428119
:10063000083AC0F0088051F8043B083A51F804CB5E
:10064000A0E80810F5E7121D5CBF51F8043B40F824
:10065000043BAFF30080D20724BF11F8013B11F82F
:1006600001CB48BF11F8012B24BF00F8013B00F873
:1006700001CB48BF00F8012B704702F0FF0343EAAB
:10068000032242EA024200F049B9704770477047BE
:10069000704753EA020C00F069802DE9F04B4FF0EF
:1006A0000006002B1FBFB3FA83F503FA05F424FA02
:1006B00005F65E4012BF1643B2FA82F502FA05F45F
:1006C000C5F120051EBF22FA05FC44EA0C042035C2
:1006D00056EA044C4FEA144418BF641C4FF000085B
:1006E0004FF00009904271EB030C39D3002919BF78
:1006F000B1FA81F701FA07F6B0FA80F700FA07F6C7
:10070000C7F120071EBF20FA07FC46EA0C06203777
:10071000B6FBF4FCA7EB0507103F07F01F0BCBF16E
:1007200020060CFA0BFB2CFA06F644BFB346002653
:10073000202FA4BF5E464FF0000B5BEA060C08BFFB
:100740004FF0010B19EB0B09ABFB027C48EB0608E1
:10075000C01B06FB02CC0BFB03CC71EB0C01C1E709
:100760000B46024641464846BDE8F08B13B54FF0B4
:1007700000004FF00001AFF30080BDE81C4070475F
:100780002DE9F0470D4699469246044600F12408AB
:100790000168880604D5E06921F01001216000E0BD
:1007A0000120A84201DD471B00E00027A1697A195A
:1007B00002EB0900081AA0612078C00602D4204686
:1007C000AFF30080002608E0D4E901211AF8060002
:1007D0009047206A401C761C20624E45F4DB20784E
:1007E000C0060AD52046AFF3008006E0D4E9012117
:1007F00030209047206A401C2062381EA7F1010774
:10080000F4DC07E0D4E9012118F805009047206ADC
:10081000401C2062281EA5F10105F3DC2046AFF341
:1008200000802078000602D50220BDE8F087012074
:10083000FBE7000001694A1C02610878704700B5B7
:100840008FB0CDE901310021059105497944CDE909
:10085000031011466846FFF703FE0FB000BD00000D
:10086000E5FFFFFF10B5436913B1AFF3008001E06E
:10087000FFF790FD012010BD127800F124010A70ED
:1008800000224A700122EDE711684FF0FF32E9E7DC
:10089000074B70B50D467B44FFF7D1FF0446284651
:1008A00000F05CF810B14FF0FF3070BD204670BD15
:1008B0003F31000010B5203AC0F00B80B1E818506D
:1008C000203AA0E81850B1E81850A0E81850BFF43A
:1008D000F5AF5FEA027C24BFB1E81850A0E81850D9
:1008E00044BF18C918C0BDE810405FEA827C24BF2D
:1008F00051F8043B40F8043B08BF7047D20728BFBB
:1009000031F8023B48BF11F8012B28BF20F8023B09
:1009100048BF00F8012B70474FF000020429C0F0D7
:10092000128010F0030C00F01F80CCF1040CBCF11D
:10093000020F18BF00F8012BA8BF20F8022BA1EB73
:100940000C0100F011B85FEAC17C24BF00F8012B54
:1009500000F8012B48BF00F8012B7047007B00F026
:10096000800070474FF0000200B51346944696464B
:10097000203922BFA0E80C50A0E80C50B1F12001B2
:10098000BFF4F7AF090728BFA0E80C5048BF0CC060
:100990005DF804EB890028BF40F8042B08BF7047BE
:1009A00048BF20F8022B11F0804F18BF00F8012B30
:1009B0007047000000487047400900207546FFF767
:1009C000F9FFAE4605006946534620F0070085460C
:1009D00018B020B5FFF79AFCBDE820404FF00006A4
:1009E0004FF000074FF000084FF0000B21F0070117
:1009F000AC46ACE8C009ACE8C009ACE8C009ACE85A
:100A0000C0098D46704710B50446AFF300802046FC
:100A1000BDE81040FFF709BC1CB50121402000F0E3
:100A2000EDFF4FF40060009001208DF804000020DD
:100A30008DF8060003208DF8050002208DF80700D0
:100A40006946044800F0AAF84FF40061014800F03C
:100A500019F91CBD0018024000BFFEE770470000F6
:100A600010B5142002F05CFA102000F041F80128C3
:100A700005D105480068C0430449C1F8AC02102004
:100A800000F030F810BD0000AC02434200004342C9
:100A90000EB500F08BFC0121880300F0CFFF03218D
:100AA000012001F069F81020009000208DF804006A
:100AB0000C208DF8050001208DF80600684600F036
:100AC00023F80A208DF8080001208DF80900032082
:100AD0008DF80A0001208DF80B0002A800F004FE3A
:100AE0000EBD00000149086070470000143C014041
:100AF00001460020034A12680A400AB1012000E0C2
:100B000000207047143C0140002123498279002ACB
:100B10003AD00A46126803689A430B461A600A1DC7
:100B2000126803689A430B1D1A60027911440A681F
:100B300003681A430A60184A0832126803689A4325
:100B4000154B08331A601A1D126803689A43124B3A
:100B50000C331A604279102A0ED11A1F12680368EA
:100B60001A430D4B08331A601A1D126803681A43A2
:100B7000094B0C331A600DE00749427911440A68A9
:100B800003681A430A6005E0027911440A680368A1
:100B90009A430A6070470000003C0140F0B50A46E5
:100BA00000210023002400BF3DE0012505FA01F3E8
:100BB000156805EA03049C4234D105684F000326FA
:100BC000BE40B543056015794E00B5400668354313
:100BD00005601579012D02D01579022D16D1856891
:100BE0004F000326BE40B543856055794E00B540A1
:100BF000866835438560456801268E40B54345606B
:100C0000456896798E40B6B235434560C5684F0059
:100C10000326BE40B543C560D5794E00B540C668D1
:100C20003543C560491C1029BFD3F0BDF0B5002382
:100C300000244D07ED0E02FA05F3CE1000F1200559
:100C400055F826504E07F70E0F26BE40B543CF107D
:100C500000F1200646F82750CE1000F1200555F887
:100C6000265045EA0304CE1000F1200545F8264041
:100C7000F0BD0246002013690B400BB1012000E0DB
:100C800000207047418370470183704710B500F022
:100C900005F802F055FE02F06DFE10BD1CB50121F5
:100CA000042000F0ABFE0F20009000208DF804001F
:100CB0008DF8060003208DF8050001208DF807004F
:100CC00069462248FFF76AFF0121202000F096FEC6
:100CD0004FF40060009000208DF804008DF80600AD
:100CE00003208DF8050001208DF80700694618489B
:100CF000FFF754FF0121022000F080FE0220009047
:100D000000208DF804008DF8060003208DF8050002
:100D100001208DF8070069460E48FFF73FFF0121CB
:100D2000084600F06BFE3020009000208DF8040093
:100D30008DF8060003208DF8050001208DF80700CE
:100D400069460548FFF72AFF1CBD00000008024065
:100D500000140240000402400000024000BFFEE711
:100D600010B500200F4908600F48006820F44000CB
:100D70000D4908600846006840F4800008600020C3
:100D80000A49C1F8AC02022002F0A6F80120054988
:100D90000860022002F0A0F800200449C1F8A8026F
:100DA00010BD0000A8824042000402400080404282
:100DB0001CB50121022000F021FE4FF4406000909C
:100DC00001208DF8040000208DF8060003208DF826
:100DD000050001208DF8070069460548FFF7DEFE93
:100DE0000120044908600449C1F8AC021CBD0000A0
:100DF00000040240A88240420080404210B500201A
:100E00000F4908600F48006820F440000D49086051
:100E10000846006840F48000086001200A49C1F8D3
:100E2000AC02022002F058F80120054908600220B7
:100E300002F052F800200449C1F8A80210BD0000D9
:100E4000A8824042000402400080404270B505463E
:100E500000241648006820F4400014490860084641
:100E600000680860002616E0002011490860022092
:100E700002F032F801200F49C1F8A8026006040E02
:100E80000B487C38006808B1601CC4B2012002F035
:100E900023F8701CC6B2082EE6DB15B9FFF7AEFFCB
:100EA00001E0FFF75DFF204670BD00000004024036
:100EB000A88240420080404270B504461548006850
:100EC00020F44000134908600846006840F48000A0
:100ED0000860002010490860002517E0E0090E496D
:100EE000091D08606006040E022001F0F5FF0120D4
:100EF0000A49C1F8A802022001F0EEFF00200649CD
:100F00000860022001F0E8FF681CC5B2082DE5DB8F
:100F100070BD000000040240A882404200804042B0
:100F200010B50F48006820F440000D4908600846DD
:100F3000006840F48000086001200A4908600A49FE
:100F4000C1F8A802042001F0C7FF0020054908608D
:100F5000042001F0C1FF00200349C1F8A80210BD20
:100F600000040240AC8240420080404210B50F486D
:100F7000006820F440000D4908600846006840F40D
:100F80008000086000200A4908600A49C1F8AC02E4
:100F9000042001F0A1FF0120054908600549C1F8BE
:100FA000AC02042001F098FF10BD000000040240D4
:100FB000A88240420080404210B5002413480068D7
:100FC00020F44000114908600846006808600120CC
:100FD0000F49086001F080FF01200E49C1F8A80206
:100FE00001F07AFF07E0601CC4B2FA2C03DDFFF7C2
:100FF000BDFF012010BD0648803800680028F2D1EE
:101000000349091F086000BFF4E700000004024024
:10101000AC8240420080404210B500200F49086079
:101020000F48006820F440200D4908600846006819
:1010300040F48020086000200A49C1F8A402022080
:1010400001F04AFF012005490860022001F044FF39
:1010500000200549C1F8A00210BD0000A0024042D6
:101060000008024000004142000040421CB501213E
:10107000084600F0C3FC0121042000F0BFFC04225C
:1010800008211A48FFF7D2FD042209211848FFF76A
:10109000CDFD4FF48070009001208DF804000020F9
:1010A0008DF8060003208DF8050001208DF807005B
:1010B00069460E48FFF772FD4FF400700090012062
:1010C0008DF8040000208DF8060003208DF805003F
:1010D00001208DF8070069460548FFF75FFD0120F4
:1010E000044908600449C1F8A4021CBD0000024084
:1010F00000080240A00240420000414210B500201A
:101100000F4908600F48006820F440200D4908602E
:101110000846006840F48020086001200A49C1F8B0
:10112000A402022001F0D8FE012005490860022037
:1011300001F0D2FE00200549C1F8A00210BD000058
:10114000A00240420008024000004142000040422C
:1011500070B5054600241548006820F44020134966
:101160000860084600680860002615E00020104965
:101170000860022001F0B0FE01200E49C1F8A00273
:101180006006040E0C48006808B1601CC4B201205F
:1011900001F0A2FE701CC6B2082EE7DB15B9FFF7FE
:1011A000ADFF01E0FFF738FF204670BD00080240A8
:1011B000A0024042000040422402414270B5044671
:1011C0001448006820F4402012490860084600686E
:1011D00040F48020086000200F490860002516E0D8
:1011E000E0090E4908606006040E022001F074FE5A
:1011F00001200B49C1F8A002022001F06DFE002081
:1012000005490860022001F067FE681CC5B2082D80
:10121000E6DB70BD00080240A0024042A402414249
:101220000000404210B50F48006820F440200D49EE
:1012300008600846006840F48020086001200A49E0
:1012400008600A49C1F8A002042001F045FE002010
:1012500005490860042001F03FFE00200349C1F861
:10126000A00210BD00080240A4024142000040421A
:1012700010B50F48006820F440200D49086008466A
:10128000006840F48020086000200A4908600A498C
:10129000C1F8A402042001F01FFE012005490860E6
:1012A0000549C1F8A402042001F016FE10BD00009B
:1012B00000080240A00240420000414210B5002454
:1012C0001248006820F44020104908600846006871
:1012D000086001200E49086001F0FEFD01200D4963
:1012E000C1F8A00201F0F8FD07E0601CC4B2FA2CBE
:1012F00003DDFFF7BDFF012010BD05488038006801
:101300000028F2D10449086000BFF5E70008024058
:10131000A402414200004042A002404210B507230F
:10132000022208214FF4A87000F0BCFC4FF440707A
:1013300000F016FAA82001F08DFD00F061F800F031
:101340007DF84FF4E13001F0DFFB4FF4E13001F0C4
:1013500003FB4FF4165001F067FB4FF4E13001F04E
:1013600039FCFFF783FEFFF791FCFFF791FBFFF7D6
:1013700053FB00F017FA00F07BF802F0A5FF00F035
:1013800011FE00F023FF9FED080A02F061FE3220FB
:1013900003F0D6FF0021084600F019FB40F6B830F4
:1013A00001F07AFD10BD0000000004421CB50121CF
:1013B000422000F023FB4FF42440009000208DF8E1
:1013C000040003208DF8050001208DF80700694610
:1013D0000948FFF7E3FB0820009000208DF8040087
:1013E00003208DF8050001208DF8070069460348A9
:1013F000FFF7D4FB1CBD00000018024000040240AF
:101400001CB50121102000F0F9FA182000900120ED
:101410008DF8040000208DF8060003208DF80500EB
:1014200001208DF8070069460348FFF7B7FB182134
:101430000148FFF729FC1CBD0010024010B5A72190
:10144000632000F039FD02F07BFE0021074801F027
:10145000B2F80021054801F0B0F80021034801F07E
:10146000AEF80021014801F0ACF810BD000C0040BE
:1014700010B5FFF79DFC80216B2000F0D7F86420A9
:1014800001F00AFD00216B2000F0D0F8032000F0ED
:101490008BF8002000F080F8322000F0AAF800213C
:1014A000382000F0C3F800216A2000F0BFF80021C6
:1014B000232000F0BBF88021372000F0B7F875201A
:1014C00000F013F80446682C0BD101216B2000F0CA
:1014D000ADF800216C2000F0A9F8322000F089F866
:1014E00001E0012010BD0020FCE770B50446FFF7C5
:1014F00017FDD020FFF7E0FCFFF75EFD2046FFF769
:10150000DBFCFFF759FDFFF70BFDD120FFF7D4FC03
:10151000FFF752FD0020FFF799FC0546FFF726FD77
:10152000284670BD2DE9F04106460F4614461D467B
:10153000FFF7F6FC002141EA4601C8B2FFF7BCFC08
:10154000FFF73AFD20B1FFF711FD0120BDE8F08162
:101550003846FFF7B1FCFFF72FFDFFF7E1FC012153
:1015600001EB4601C8B2FFF7A7FCFFF725FD0DE030
:10157000012C04D10020FFF769FC287003E0012052
:10158000FFF764FC2870601EC4B26D1C002CEFD104
:10159000FFF7ECFC0020D9E710B50446E006010E89
:1015A0001C2000F043F810BD10B50446E006010E03
:1015B0001B2000F03BF810BD70B504460025BC2C84
:1015C00001DB012510E0622C01DB02250CE02A2C56
:1015D00001DB032508E0142C01DB042504E00A2CC0
:1015E00001DB052500E0062529461A2000F01EF83B
:1015F00070BD70B50446B4F57A7F01DD4FF47A749E
:10160000042C00DA04244FF47A7090FBF4F0401EAE
:10161000C5B22946192000F009F80546264604EB14
:10162000D671C1F34F00FFF7C7FF70BD70B5054617
:101630000C46FFF775FCD020FFF73EFCFFF7BCFC23
:1016400018B1FFF793FC012070BD2846FFF734FC6A
:10165000FFF7B2FC2046FFF72FFCFFF7ADFC18B1F7
:10166000FFF784FC0120EFE7FFF780FC0020EBE7A9
:101670002DE9F04105460E4617469846FFF750FC07
:10168000002141EA4501C8B2FFF716FCFFF794FCC0
:1016900020B1FFF76BFC0120BDE8F0813046FFF779
:1016A0000BFCFFF789FC00240CE018F80400FFF79E
:1016B00003FCFFF781FC18B1FFF758FC0120EBE7B2
:1016C000601CC4B2BC42F0DBFFF750FC0020E3E733
:1016D0004A0A52020243014B1A60704708ED00E0CB
:1016E00000BFFEE77047000070B5002100230F2205
:1016F000C4781CB3174C246804F4E064C4F5E064B7
:10170000C4F30721C1F10404E3B20A4144789C40C8
:10171000E1B28478144021430C07210E0E4C057869
:101720006155047804F01F050124AC4005786D1163
:10173000AD0005F1E025C5F8004109E0047804F0AA
:101740001F050124AC40054D0678761145F826406A
:1017500070BD00000CED00E000E400E080E100E07E
:1017600002490143024A1160704700000000FA0577
:101770000CED00E070B500240CE0002506E0002030
:10178000074901EBC5010855681CC5B2802DF6DB81
:10179000601CC4B2082CF0DB00F09CF870BD0000A7
:1017A000F40000201CB50121482000F027F9F020AA
:1017B000009001208DF8040000208DF80600032021
:1017C0008DF8050001208DF8070069464048FFF7B5
:1017D000E5F920213E48FFF755FAC82001F05CFBEF
:1017E00020213B48FFF750FA0021AE2000F098F886
:1017F0000021084600F094F80021102000F090F835
:101800000021402000F08CF80021812000F088F8B1
:101810000021CF2000F084F80021A12000F080F802
:101820000021C82000F07CF80021A62000F078F804
:101830000021A82000F074F800213F2000F070F88B
:101840000021D32000F06CF80021084600F068F871
:101850000021D52000F064F80021802000F060F81D
:101860000021D92000F05CF80021F12000F058F8A8
:101870000021DA2000F054F80021122000F050F886
:101880000021DB2000F04CF80021402000F048F857
:101890000021202000F044F80021022000F040F850
:1018A00000218D2000F03CF80021142000F038F8D1
:1018B0000021A42000F034F80021A62000F030F828
:1018C000FFF758FF0021AF2000F02AF81CBD0000F0
:1018D0000018024070B500241CE004F1B001C8B249
:1018E000002100F01DF80021084600F019F8002141
:1018F000102000F015F8002508E0084901EBC501AB
:10190000085D012100F00CF8681CC5B2802DF4DBE5
:10191000601CC4B2082CE0DB70BD0000F4000020A5
:1019200070B504460E4626B110211848FFF7ACF9F1
:1019300003E010211548FFF7A5F902211448FFF72D
:10194000A1F9002517E080211048FFF79BF904F06A
:10195000800020B140210D48FFF796F903E04021B7
:101960000A48FFF78FF980210848FFF78DF96006D4
:10197000040E681CC5B2082DE5DB02210448FFF700
:1019800083F910210148FFF77FF970BD001802406C
:10199000000C024070B50446FFF744FC8020FFF7BE
:1019A0000DFCFFF78BFC2046FFF708FCFFF786FCD9
:1019B000FFF738FC8120FFF701FCFFF77FFC0020D8
:1019C000FFF7C6FB0546FFF753FC284670BD70B510
:1019D00005460C46FFF726FC8020FFF7EFFBFFF7DC
:1019E0006DFC2846FFF7EAFBFFF768FC2046FFF78F
:1019F000E5FBFFF763FCFFF73BFC70BD29B1064A2E
:101A000012680243044B1A6004E0034A12688243DE
:101A1000014B1A60704700003038024029B1064A75
:101A200012680243044B1A6004E0034A12688243BE
:101A3000014B1A60704700004038024029B1064A45
:101A400012680243044B1A6004E0034A126882439E
:101A5000014B1A607047000044380240F0B5002185
:101A600000220024022500260223324F3F6807F09F
:101A70000C0121B1042905D0082937D105E02E4FEA
:101A8000076036E02D4F076033E02A4F3F1F3F6865
:101A9000C7F38056274F3F1F3F6807F03F036EB1E3
:101AA000264FB7FBF3F7DFF88CC0ACF1040CDCF881
:101AB00000C0CCF3881C07FB0CF40CE01E4FB7FBF6
:101AC000F3F7DFF870C0ACF1040CDCF800C0CCF325
:101AD000881C07FB0CF4174F3F1F3F68C7F30147F3
:101AE0007F1C7D00B4FBF5F7076002E0124F076032
:101AF00000BF00BF0F4F3F6807F0F0010909104F0A
:101B00007A5C0768D74047600A4F3F6807F4E051A6
:101B1000890A0B4F7A5C4768D7408760054F3F685A
:101B200007F46041490B064F7A5C4768D740C760AD
:101B3000F0BD0000083802400024F40000127A00D2
:101B4000470000200448006820F0C00002490860F7
:101B500008460068086070470018024005480068A1
:101B600020F0C000034908600846006840F04000CB
:101B7000086070470018024030B500228B071C0F28
:101B80000F2303FA04F20B4B8C1053F824309343C9
:101B9000084C8D1044F8253023468C1053F824301F
:101BA0008C07240F00FA04F42343024C8D1044F8F0
:101BB000253030BD083801400CB500200190009060
:101BC0003448006840F480303249086000BF314832
:101BD000006800F4003000900198401C01900098CB
:101BE00018B90198B0F5A04FF1D12A48006800F467
:101BF000003010B10120009001E00020009000981A
:101C0000012846D123484030006840F080502149E7
:101C1000403108602048006840F440401E49086098
:101C20001C48083000681B490831086008460068F5
:101C300040F4004008600846006840F4A050086086
:101C40001648091F0860081F006840F08070091FCF
:101C5000086000BF0F48006800F000700028F9D04D
:101C600040F205700E4908600A480830006820F00C
:101C700003000849083108600846006840F0020087
:101C8000086000BF03480830006800F00C00082816
:101C9000F8D10CBD003802400070004008544007E5
:101CA000003C0240F0B504460D4616461F46144857
:101CB000006840F001001249086000201049083116
:101CC00008600F4800680F4908400D4908600E4839
:101CD000091D0860081F006820F48020091F0860A3
:101CE000002007490C3108603B4632462946204611
:101CF00000F028F800210846FFF7EAFCF0BD0000DC
:101D000000380240FFFFF6FE10300024042808D1FE
:101D10004FF0E021096941F004014FF0E022116128
:101D200007E04FF0E021096921F004014FF0E022C3
:101D30001161704710B503F013FD012801D003F0C5
:101D4000F5FC10BDF0B504460D46002100203D4EC7
:101D5000366846F480363B4F3E6001E04E1CB1B21F
:101D6000384E366806F400361EB941F6FF76B142A9
:101D7000F4DB41F6FF76B14201D1012060E0314E43
:101D80004036366846F080562E4F40373E602E4E25
:101D9000366846F440462C4F3E602A4E0836366878
:101DA00046F41446274F08373E60264E366826F024
:101DB0008076244F3E6045EA84160127C7EB520720
:101DC00046EA074646EA036646F480061D4F3F1D75
:101DD0003E603E1F366846F080763F1F3E6000BF83
:101DE000184E366806F00076002EF9D0174E366889
:101DF00046F48076154F3E603E46366846F40076DF
:101E00003E603E46366846F480663E603E46366832
:101E100046F005063E600B4E0836366826F003068F
:101E2000084F08373E603E46366846F002063E6080
:101E300000BF044E0836366806F00C06082EF8D1AE
:101E4000F0BD00000038024000700040003C02403D
:101E500010B51548006840F4700013490860134835
:101E6000006840F001001149086000200F49083166
:101E700008600E4800680E4908400C4908600D488B
:101E8000091D0860081F006820F48020091F0860F1
:101E9000002006490C310860FFF78EFE4FF000600D
:101EA00001498039086010BD88ED00E0003802402B
:101EB000FFFFF6FE1030002430B58BB005460C460F
:101EC00001210846FFF79AFD01210820FFF7A6FD32
:101ED0000F20099002208DF8280003208DF829009A
:101EE00000208DF82A0001208DF82B0009A92B482D
:101EF000FEF754FE022200212848FEF797FE022238
:101F000001212648FEF792FE022211462348FEF7E1
:101F10008DFE022203212148FEF788FE0795A0B21C
:101F2000ADF818000020ADF81A00ADF8200006A9A1
:101F30001B4800F049FB6020ADF804000020ADF81C
:101F400010000120ADF8060001A9154800F0E8F9DD
:101F500001A9134800F02CFA01A9114800F088FAF1
:101F600001A90F4800F0DEFA08210D4800F016FA2A
:101F700008210B4800F06EFA0821094800F0C8FA61
:101F80000821074800F00AFB0121054800F09CF9F0
:101F90000121034800F0A7F90BB030BD000002405A
:101FA000000C00401CB501214020FFF727FD042252
:101FB00002211648FEF73AFE042203211348FEF7D9
:101FC00035FE0420009001208DF8040000208DF8DB
:101FD000060003208DF8050001208DF807006946F2
:101FE0000A48FEF7DBFD0820009001208DF8040070
:101FF00000208DF8060003208DF8050001208DF8E3
:10200000070069460148FEF7C9FD1CBD00180240E3
:1020100010B508210748FEF735FE04210548FEF7F4
:1020200033FE00F009F804210248FEF72BFE00F011
:1020300003F810BD0018024010B5062000F04CFF58
:1020400010BD000010B5FFF77DFD04211048FEF71C
:1020500019FE04210E48FEF717FEFFF7EDFF05E01D
:10206000601C84B2642C01D1002010BD08210848F6
:10207000FEF7FFFD08B1642CF2DB04210448FEF7F3
:1020800001FEFFF7D9FFFFF769FD0120EDE7000032
:102090000018024010B508210648FEF7F5FD04219E
:1020A0000448FEF7F1FDFFF7C7FF04210148FEF7E2
:1020B000E9FD10BD0018024070B50024FFF742FD95
:1020C00004211448FEF7DEFD08211248FEF7DCFD6E
:1020D000FFF7B2FF002516E06006040E04210D484C
:1020E000FEF7D2FDFFF7A8FF08210A48FEF7C1FD61
:1020F00008B144F0010404210648FEF7C3FDFFF7D0
:102100009BFF681CC5B2082DE6DBFFF727FD2046C4
:1021100070BD00000018024010B508210948FEF704
:10212000B3FD04210748FEF7AFFDFFF785FF082147
:102130000448FEF7A7FD04210248FEF7A3FDFFF7C0
:102140007BFF10BD0018024010B504210948FEF7BE
:102150009BFD08210748FEF795FDFFF76DFF08215D
:102160000448FEF791FD04210248FEF78BFDFFF7BE
:1021700063FF10BD0018024070B5044600251CE046
:1021800004F08000802804D108210F48FEF77CFD70
:1021900003E008210C48FEF775FD04210A48FEF70C
:1021A00073FDFFF749FF04210748FEF76BFDFFF7BA
:1021B00043FF6006040E681CC5B2082DE0DB082151
:1021C0000148FEF75FFD70BD0018024008B5002011
:1021D000009001221221684600F018F89DF80000D6
:1021E000442805D09DF800004D2801D0012008BDED
:1021F0001321002000F036F800210C2000F032F806
:1022000003210F2000F02EF80020F0E770B50546FE
:102210000E461446FFF780FF5220FFF7ADFFFFF791
:1022200011FF46F08000FFF7A7FFFFF70BFFFFF756
:1022300073FF5320FFF7A0FFFFF704FF0EE0FFF747
:102240003BFF2870012C04D1FFF724FFFFF77CFF30
:1022500001E0FFF7DDFE6D1C601E84B2002CEED1A4
:10226000002070BD70B504460D46FFF755FF5220A3
:10227000FFF782FFFFF7E6FE44F08000FFF77CFFE8
:10228000FFF7E0FE2846FFF777FFFFF7DBFE0020B1
:1022900070BD000010B50121084800F030F858B1B9
:1022A00000200749086007480068401C054908608D
:1022B0000121024800F014F810BD000000040040A5
:1022C0002C0000203000002021B1028842F0800262
:1022D000028004E002884FF67F731A400280704744
:1022E000CA430282704721B1028842F00102028093
:1022F00004E002884FF6FE731A400280704730B542
:102300000246002000230024158A05EA010395896E
:1023100005EA010413B10CB1012000E0002030BD3A
:1023200070B5002400220023058C4FF6FE76354060
:102330000584028C8388048B4FF68F752C40B51E64
:102340002C400D882C43751E2A408D892A434D88C8
:102350002A43104DA84202D00F4DA84213D14FF688
:10236000F7752A40CD892A434FF6FB752A408D88A0
:102370002A434FF6FF652B404FF6FF552B400D8A41
:102380002B434D8A2B43838004838D6845630284ED
:1023900070BD000000000140000401400A46002119
:1023A000018B4FF6F773194011430183704700000A
:1023B00070B5002400220023058C4FF6EF763540DF
:1023C0000584028C8388048B48F6FF752C404FF6F9
:1023D000FF452C400D884FF6FF7606EA05252C4375
:1023E0004FF6DF752A408D8906EA05152A434D8888
:1023F00006EA05152A43154DA84202D0144DA842FD
:102400001DD14FF67F752A40CD894FF6FF7606EA3B
:1024100005152A434FF6BF752A408D8806EA051533
:102420002A434FF6FF352B404FF2FF752B400D8AA4
:1024300006EA85052B434D8A06EA85052B438380F2
:1024400004838D688563028470BD00000000014034
:10245000000401400A460021018B4FF2FF7319402E
:102460004FF6FF7303EA022319430183704700000C
:1024700070B5002400220023058C4FF6FF6635401E
:102480000584028C8388848B4FF68F752C404FF621
:10249000FC752C400D882C434FF6FF552A408D8942
:1024A0004FF6FF7606EA05252A434D8806EA0525FC
:1024B0002A43154DA84202D0144DA8421DD14FF217
:1024C000FF752A40CD894FF6FF7606EA05252A4397
:1024D0004FF6FF352A408D8806EA05252A434EF639
:1024E000FF752B404DF6FF752B400D8A06EA05154A
:1024F0002B434D8A06EA05152B43838084838D6820
:10250000C563028470BD000000000140000401406A
:102510000A460021818B4FF6F773194011438183DE
:102520007047000070B5002200230024058C4EF691
:10253000FF7635400584038C8488828B48F6FF75CE
:102540002A404FF6FF452A400D884FF6FF7606EAEF
:1025500005252A434DF6FF752B408D8906EA053582
:102560002B434D8806EA05352B430A4DA84202D07D
:10257000094DA84208D14BF6FF752C400D8A4FF645
:10258000FF7606EA85152C43848082838D68056476
:10259000038470BD00000140000401400A46002190
:1025A000818B4FF2FF7319404FF6FF7303EA02234A
:1025B0001943818370474163704781637047C163EA
:1025C000704701647047000000220288184B98424F
:1025D0000ED0184B98420BD0B0F1804F08D0164B5C
:1025E000984205D0154B984202D0154B984204D121
:1025F0004FF68F731A404B881A43124B984207D0FC
:10260000114B984204D04FF6FF431A400B891A43EE
:1026100002804B68C3620B880385054B984202D049
:10262000044B984201D18B7A038601238382704741
:102630000000014000040140000400400008004088
:10264000000C0040001000400014004010B540F2A3
:1026500025511D4800F0C0F810B31B4800F076F972
:10266000C4B21A48008800F40040C8B9174800886E
:1026700000F4804060B10A2C03D000201349088088
:1026800020E01248008840F400401049088019E01A
:102690000D2C06D10D48008840F480400B4908807D
:1026A00010E00A480088C0F30D0009490C5407489F
:1026B0000088401C0549088008460088C72801DDBD
:1026C0000020088010BD00000010014040000020E4
:1026D0007405002010B540F22551314800F07CF817
:1026E00000285BD02E4800F031F9C4B22D480078A4
:1026F000C8B9552C10D12C480078401C2A490870C4
:102700000846007802280ED10020087001202549D3
:1027100008702649087006E0002022490870234905
:102720000870214908701F480078B8B320481F4935
:10273000097844541D480078032813D11C481B49CC
:102740000978405C1B49087008460078032803DBC1
:1027500008460078072805DD032016490870002088
:102760001049087011480078401C1049087008464C
:10277000017810480078C01C81420FD10E480078C3
:1027800048B901200C49087008480278921C084991
:102790000A48FDF72DFF00200249087010BD000017
:1027A00000140140430000204400002046000020A7
:1027B0003C0600204500002042000020E4000020EC
:1027C00021B1828942F40052828104E082894DF66F
:1027D000FF731A408281704770B5024600240023BF
:1027E0000025002040F66A16B14200D100BFC1F3B7
:1027F000421501F01F03012606FA03F3012D02D151
:102800009689334006E0022D02D1168A334001E05A
:10281000968A33400C12012606FA04F416883440D6
:1028200013B10CB1012000E0002070BDF0B50346EB
:10283000002400260025002040F66A17B94200D186
:1028400000BF1846C1F3421401F01F06012707FA22
:1028500006F5012C01D10C3004E0022C01D110301E
:1028600000E014301AB107682F43076002E00768E0
:10287000AF430760F0BD00002DE9FF4705460E4657
:102880000024A14600BFA046B08900B100BF2C8A39
:1028900024F44054F08804432C82AC8941F20C604B
:1028A0008443B08831890843718908430443AC816B
:1028B000AC8A24F44074B0890443AC826846FFF7C4
:1028C000CDF82048854202D01F48854202D1DDF86C
:1028D0000C9001E0DDF80890A88900F4004040B1B8
:1028E00009EBC90000EB091031684900B0FBF1F7B2
:1028F00007E009EBC90000EB091031688900B0FB63
:10290000F1F76420B7FBF0F004012009642101FB1A
:102910001078A88900F4004040B1322000EBC800D4
:10292000B0FBF1F000F00700044308E0322000EBB8
:1029300008106421B0FBF1F000F00F0004432C817B
:10294000BDE8FF870010014000140140014688885F
:10295000C0F308007047000010B588B0044601219C
:102960000420FFF74BF80121C804FFF757F80822AD
:102970000A212B48FEF75AF908220B212848FEF7B6
:1029800055F94FF48060069002208DF81C008DF8F8
:102990001D0000208DF81E0001208DF81F0006A9E3
:1029A0001F48FEF7FBF84FF40060069002208DF8F8
:1029B0001C008DF81D0000208DF81E0001208DF8F0
:1029C0001F0006A91648FEF7E9F802940020ADF8AA
:1029D0000C00ADF80E00ADF81000ADF814000C209E
:1029E000ADF8120002A90F48FFF746FF01210D487C
:1029F000FFF7E6FE012240F225510A48FFF716FFD5
:102A000034208DF8040003208DF805008DF80600B1
:102A100001208DF8070001A8FEF766FE08B010BD82
:102A200000080240004C004010B588B00446012167
:102A30000420FEF7E3FF01210820FEF7DFFF01215C
:102A40000805FEF7EBFF08220C212B48FEF7EEF8F5
:102A5000082202212948FEF7E9F84FF48050069039
:102A600002208DF81C008DF81D0000208DF81E003E
:102A700001208DF81F0006A91F48FEF78FF80420DB
:102A8000069002208DF81C008DF81D0000208DF8A6
:102A90001E0001208DF81F0006A91848FEF77EF8D9
:102AA00002940020ADF80C00ADF80E00ADF8100057
:102AB000ADF814000C20ADF8120002A91048FFF781
:102AC000DBFE01210E48FFF77BFE012240F225517B
:102AD0000B48FFF7ABFE35208DF8040003208DF87E
:102AE00005008DF8060001208DF8070001A8FEF70B
:102AF000FBFD08B010BD000000080240000C0240C1
:102B00000050004000BFFEE710B588B00446012128
:102B10000846FEF773FF01211020FEF78FFF072202
:102B200009212248FEF782F807220A211F48FEF7F2
:102B30007DF84FF4C060069002208DF81C008DF8DF
:102B40001D0000208DF81E0001208DF81F0006A931
:102B50001648FEF723F802940020ADF80C00ADF8FB
:102B60000E00ADF81000ADF814000C20ADF8120006
:102B700002A90F48FFF780FE01210D48FFF720FE54
:102B8000012240F225510A48FFF750FE25208DF81A
:102B9000040003208DF805008DF8060001208DF853
:102BA000070001A8FEF7A0FD08B010BD000002401C
:102BB0000010014008B547208DF8000003208DF873
:102BC00001008DF8020001208DF803006846FEF731
:102BD0008BFD08BD10B586B0044601214020FEF7EC
:102BE0000DFF01212020FEF729FF08220E211C489D
:102BF000FEF71CF8082209211948FEF717F84FF4D0
:102C00008440049002208DF814008DF815000020F7
:102C10008DF8160001208DF8170004A91048FDF763
:102C2000BDFF00940020ADF80400ADF80600ADF83B
:102C30000800ADF80C000C20ADF80A006946094800
:102C4000FFF71AFEFFF7B6FF012240F225510548B3
:102C5000FFF7ECFD01210348FFF7B2FD06B010BD00
:102C600000180240001401402DE9F0412DED020B47
:102C70009FED3D0B2DED028B9FED3D8BDDE9025469
:102C8000C4F30A50A0F2FF36142E37DA002E18DAF9
:102C900053EC102B9DED020B51EC100B02F0B0FE2B
:102CA00053EC182B03F036FA57D2002CA4BF0024A3
:102CB000254652DA24F00040284318BF2E4C4CD051
:102CC0001AE02E4820FA06F704EA070028431FD02E
:102CD00053EC102B9DED020B51EC100B02F090FE0B
:102CE00053EC182B03F016FA37D2002C03DA4FF40A
:102CF0008010F0400444BC4300252EE0332E07DC56
:102D0000A6F114004FF0FF3121FA00F73D4206D141
:102D10009DED020BBDEC028B02B0BDE8F08153ECDF
:102D2000102B9DED020B51EC100B03F029FA53EC24
:102D3000182B03F0EFF910D2002C0DDA142E08BF77
:102D4000641C09D0C6F13400012101FA00F02844C6
:102D5000A84238BF641C0546BD43CDE902549DED31
:102D6000020BD7E7000000009C7500883CE4377E2A
:102D700000000000000000000000F0BFFFFF0F0097
:102D800030380A2801D2012070470020704700BF68
:102D900070470000F0B52DED028B83B006460F465C
:102DA0000025684600F026FE002447E056F824106F
:102DB00057F82420881A002801DB014600E0414230
:102DC00000EE101AB8EEC00ADFED200A80EE208A6D
:102DD000684600EB840090ED000AB5EEC00AF1EE03
:102DE00010FA18D0684600EB8400D0ED000A88EE97
:102DF000200AF7EE000A70EE608AB0EEE80A144886
:102E0000D0ED090AB4EEE00AF1EE10FA15DD01206A
:102E1000A040054311E00E4890ED070AB4EEC80A41
:102E2000F1EE10FA06DC90ED080AB4EEC80AF1EEF5
:102E300010FA02D20120A0400543641C032CB5DB2C
:102E4000284603B0BDEC028BF0BD000000008047B7
:102E5000A063000870B504460420FEF757FF0C4835
:102E6000047025464FF47A704543012009490880D3
:102E70004FF0E020006940F002004FF0E0210861CF
:102E800008464561006940F00100086170BD00001E
:102E9000340000203600002070B5044602F060FCCB
:102EA000012810D00B480088844206D309480088C6
:102EB000B4FBF0F5284602F0A3FB06480088B4FBFB
:102EC000F0F100FB11444FF47A7104FB01F000F0C3
:102ED00003F870BD3600002070B5034600224FF0A5
:102EE000E02675690D4E367803FB06F44FF0E026B8
:102EF000B16910E04FF0E026B06988420BD08842FB
:102F000002D20E1A324402E02E1A0E443244014616
:102F1000A24200D300E0EDE700BF70BD3400002006
:102F200030B50446002504E04FF47A70FFF7D4FF73
:102F30006D1CA542F8D330BD38B5044664B12020DD
:102F40008DF8000028208DF8010030208DF8020057
:102F500038208DF8030004E0A32204216846FDF721
:102F60008CFB6A46042140F69E2002F0F5F801F041
:102F7000DFFC38BD3EB5044602208DF80000CA20B3
:102F80008DF80100E3208DF8020009208DF8030080
:102F90006A460421682002F0DFF8A3208DF80000C3
:102FA00004F0400048B1C0208DF80100C8208DF821
:102FB0000200C2208DF8030006E0A3208DF8010076
:102FC0008DF802008DF8030004F4C07048B1C420ED
:102FD0008DF80400CC208DF80500C6208DF8060081
:102FE00006E0A3208DF804008DF805008DF806009A
:102FF000A3208DF807008DF808008DF809006A46B7
:103000000A2140F6A72002F0A7F804F0030018B147
:1030100020208DF8000002E0D8208DF800006A46DC
:10302000012140F6B62002F097F804F0200018B114
:10303000012000F0ADF802E0002000F0A9F804F44F
:10304000C07008B304F4807060B1B2208DF8000045
:103050008B208DF80100B6208DF802009B208DF8A2
:1030600003000BE0B0208DF8000080208DF80100F7
:10307000B4208DF8020090208DF803006A460421E8
:1030800040F6A22002F068F804F0010020B3F82016
:103090008DF800006A4601214FF40B6002F05CF8E5
:1030A000FA21072000F046FB072000F00DFB01206D
:1030B00000F02DFB642000F01DFC4FF4FA7000F0CE
:1030C0002CFCC821304800F0BDFA282000F0D6FAC8
:1030D0000A2000F0E6FA08E0D8208DF800006A46E1
:1030E00001214FF40B6002F037F804F0020018B130
:1030F000D9208DF8000002E0D8208DF800006A4643
:10310000012140F23D7002F027F804F0040018B1EC
:10311000012000F069F802E0002000F065F804F0FA
:10312000100018B10120FFF707FF02E00020FFF7B1
:1031300003FF44F008001549488101F0F9FB002025
:103140001249887304F0400018B10846807B801D46
:10315000887304F4C07020B10C48807B801D0B493B
:10316000887304F0140020B10848807B10300749B0
:10317000887304F0030020B10448807B001D0349DC
:10318000887300203EBD000009E3CA023009002018
:103190003EB504466CB10EA1D1E900208968CDE9A5
:1031A000002002916A4609214FF4976001F0D4FF94
:1031B0003EBD0AA2D2E900109268CDE90102009159
:1031C0006A4609214FF4976001F0C6FFF0E700005E
:1031D000B8AAB38DB4980D355D000000B8AAAAAAAC
:1031E000B088C3C5C700000038B5044664B1C0202C
:1031F0008DF80000C2208DF80100C4208DF8020077
:10320000C6208DF8030004E08B2204216846FDF7F8
:1032100034FA6A46042140F6982001F09DFF01F03F
:1032200087FB38BD10B5C8234FF48062024940F6D1
:10323000F63001F071FA10BDC863000870B588B0AF
:10324000064601A801F0B4F8BDF804000021C90346
:1032500041EA5045C4034448007A00F0030056F8A0
:10326000200005904048007A00F0040010B1059855
:10327000404205903C48007AC0F3C10056F8200057
:1032800006903948007A00F0200010B106984042BC
:1032900006903548007AC0F3811056F82000079058
:1032A0003148008900F4807010B1079840420790BF
:1032B0000598C117A0FB042301FB043100FB051096
:1032C000810041EA927005900698C117A0FB042383
:1032D00001FB043100FB0510810041EA9270069069
:1032E0000798C117A0FB042301FB043100FB051064
:1032F000810041EA927007900598000E8DF8080051
:103300000598000C8DF809000598000A8DF80A0050
:103310000598C0B28DF80B000698000E8DF80C00D1
:103320000698000C8DF80D000698000A8DF80E0026
:103330000698C0B28DF80F000798000E8DF81000A7
:103340000798000C8DF811000798000A8DF81200FC
:103350000798C0B28DF8130002AA0C214FF4257013
:1033600001F0FAFE08B070BD3009002030B585B01C
:10337000044616A207CA02AB07C3C82C03DD4FF0F0
:10338000FF3005B030BDC82090FBF4F0401E85B280
:10339000280A8DF80000E8B28DF801006A46022183
:1033A00040F2162001F0D8FE10B14FF0FF30E8E7F0
:1033B00002AA0C2140F6C12001F0CEFE10B14FF060
:1033C000FF30DEE7044884810020DAE7FEF2ABC478
:1033D000AAF1DFDFBBAFDFDF300900201FB50446F5
:1033E0004848007A00F0030054F820000190454856
:1033F000007A00F0040010B1019840420190414869
:10340000007AC0F3C10054F8200002903D48007AD1
:1034100000F0200010B10298404202903948007A32
:10342000C0F3811054F8200003903648008900F45E
:10343000807010B10398404203903349019880FB9B
:103440000101800F40EA810001902F49029880FB22
:103450000110820042EA917002902B49039880FB90
:103460000110820042EA917003900198000E8DF8DD
:1034700000000198000C8DF801000198000A8DF8F9
:1034800002000198C0B28DF803006A4604214FF48F
:10349000747001F061FE18B14FF0FF3004B010BD40
:1034A0000298000E8DF800000298000C8DF80100C3
:1034B0000298000A8DF802000298C0B28DF803004D
:1034C0006A4604214FF4757001F046FE10B14FF0CA
:1034D000FF30E3E70398000E8DF800000398000C1E
:1034E0008DF801000398000A8DF802000398C0B21D
:1034F0008DF803006A4604214FF4767001F02CFE2B
:10350000CCE700003009002009E3CA0210B586B0FC
:10351000044647A00068039046A00068029046A0B9
:103520000068019045A00068009004F0030003A922
:10353000085C8DF8140003A8C4F3C101405C8DF849
:10354000150003A8C4F38111405C8DF8160004F047
:10355000030002A9085C8DF8100002A8C4F3C101A1
:10356000405C8DF8110002A8C4F38111405C8DF815
:10357000120005AA032140F2264001F0EDFD18B12A
:103580004FF0FF3006B010BD04AA032140F22A40DC
:1035900001F0E2FD10B14FF0FF30F3E70198059024
:1035A0000098049004F0040058B19DF8140040F015
:1035B00001008DF814009DF8100040F001008DF816
:1035C000100004F0200058B19DF8150040F00100F3
:1035D0008DF815009DF8110040F001008DF81100E4
:1035E00004F4807058B19DF8160040F001008DF889
:1035F00016009DF8120040F001008DF8120005AA97
:1036000003214FF4886001F0A7FD10B14FF0FF30A7
:10361000B8E704AA032140F2314001F09DFD10B14A
:103620004FF0FF30AEE7064804810020AAE7000013
:103630004CCD6C000CC92C00365676002646660030
:1036400030090020F8B505460E464FF47A7095FB18
:10365000F0F000FB06F4200E8DF80000200C8DF831
:103660000100200A8DF80200E0B28DF803006A46DE
:1036700004214FF4AE7001F06FFDF8BD38B504467B
:10368000052094FBF0F084B220128DF80000E0B227
:103690008DF801006A4602214FF4AD7001F05CFD27
:1036A00038BD38B50446052094FBF0F084B22012F2
:1036B0008DF80000E0B28DF801006A4602214FF457
:1036C000AC7001F049FD38BD38B5044600200090CB
:1036D00004F0010020B19DF8000040F0300000909F
:1036E00004F0020020B19DF8000040F00C000090B2
:1036F00004F0040020B19DF8000040F003000090A9
:103700006A4601214FF4A47001F026FD38BD38B59A
:103710000446012C01DA012402E0042C00DD04241B
:10372000601EC0B200906A46012140F24F1001F0C5
:1037300013FD38BDF0B52DED028B83B006460F4664
:1037400006F0070010B1B7F5C86F05DD4FF0FF3088
:1037500003B0BDEC028BF0BD00EE107AB8EE400A6B
:10376000DFED5B0A80EE208A01A800F0FBFD9DF8EA
:103770000400022806D0042817D0082828D01028D2
:103780004CD138E09FED530A28EE000ABCEEC00A87
:1037900010EE100A84B29FED500A28EE000ABCEE2B
:1037A000C00A10EE100A85B23BE09FED4C0A28EEED
:1037B000000ABCEEC00A10EE100A84B29FED480A5F
:1037C00028EE000ABCEEC00A10EE100A85B228E00E
:1037D0009FED440A28EE000ABCEEC00A10EE100A63
:1037E00084B29FED410A28EE000ABCEEC00A10EE3A
:1037F000100A85B215E09FED3D0A28EE000ABCEEE6
:10380000C00A10EE100A84B29FED390A28EE000AB1
:10381000BCEEC00A10EE100A85B202E04FF0FF3095
:1038200096E700BF20128DF80800E0B28DF809007D
:1038300028128DF80A00E8B28DF80B0006F001009E
:10384000A0B102AA02214FF4EA7001F085FC10B188
:103850004FF0FF307CE70DF10A0202214FF4927025
:1038600001F07AFC10B14FF0FF3071E706F0020072
:10387000A0B102AA02214FF4EC7001F06DFC10B16E
:103880004FF0FF3064E70DF10A0202214FF494700B
:1038900001F062FC10B14FF0FF3059E706F0040070
:1038A000A0B102AA02214FF4EE7001F055FC10B154
:1038B0004FF0FF304CE70DF10A0202214FF49670F1
:1038C00001F04AFC10B14FF0FF3041E700203FE724
:1038D00000004843000080460000404600000046CB
:1038E0000000C04500008045000040450000004544
:1038F0000000C04438B50446052094FBF0F085B2C2
:1039000028128DF80000E8B28DF801006A46022105
:103910004FF4EF7001F020FC38BD38B504460520A7
:1039200094FBF0F085B228128DF80000E8B28DF813
:1039300001006A4602214FF4ED7001F00DFC38BD24
:103940001CB501212020FEF759F840F2F710009035
:1039500000208DF804008DF8060003208DF8050086
:1039600001208DF8070069460148FDF717F91CBDD5
:10397000001402401CB501211020FEF73FF803207F
:10398000009000208DF804008DF8060003208DF8CB
:10399000050001208DF8070069460D48FDF7FEF887
:1039A00001210220FEF72AF84FF47C7000900020DD
:1039B0008DF804008DF8060003208DF80500012025
:1039C0008DF8070069460348FDF7E8F81CBD0000C4
:1039D000001002400004024000BF054A128802F0B5
:1039E0004002002AF9D0C2B2014B1B1D1A80704759
:1039F000004C00407CB505462E494968087801AB6B
:103A000004220D21FDF78EFD08B107207CBD9DF835
:103A10000700C0F301109DF8041001F0E00140EA36
:103A2000E1008DF800009DF80700C0F381009DF8CB
:103A3000051001F0E00140EAE1008DF801009DF879
:103A4000070000F003009DF8061001F0E00140EAD5
:103A5000E1008DF80200002427E01DF8040030B9D1
:103A60009FED150A05EB840080ED000A1BE09FED39
:103A7000130A05EB840080ED000A0BE005EB8400DF
:103A800090ED000ADFED0E0A20EE200A05EB84001F
:103A900080ED000A1DF80400401EC0B20DF80400BD
:103AA0000028EBD100BF601CC4B2032CD5DB002082
:103AB000ACE70000A0000020000000007B14AE3E38
:103AC0001D5A843F2DE9F04F87B005460C469146BC
:103AD00001208DF8100000208DF81100FE4A1268B8
:103AE000917CFD4A5268107804AB0222FDF7C0FDBC
:103AF00020B14FF0FF3007B0BDE8F08FC820FFF7CE
:103B0000CBF900208DF81000F34A1268D17BF24AFD
:103B10005268107804AB0122FDF7AAFD10B14FF0F6
:103B2000FF30E8E7EC4A12685179EB4A52681078A6
:103B300004AB0122FDF79CFD10B14FF0FF30DAE736
:103B4000E54A1268917CE44A5268107804AB01227D
:103B5000FDF78EFD10B14FF0FF30CCE7DE4A126862
:103B6000D17DDD4A5268107804AB0122FDF780FD5B
:103B700010B14FF0FF30BEE7D74A12681179D64A2C
:103B80005268107804AB0122FDF772FD10B14FF0BE
:103B9000FF30B0E70C208DF81000CF4A1268117981
:103BA000CD4A5268107804AB0122FDF761FD10B1D7
:103BB0004FF0FF309FE70F20FFF76EF9C648806A8D
:103BC000407A8DF81000C44A12689178C24A52684F
:103BD000107804AB0122FDF74BFD10B14FF0FF3020
:103BE00089E7BD48806A007A8DF81000BA4A1268E9
:103BF0005178B94A5268107804AB0122FDF738FDBC
:103C000010B14FF0FF3076E7B9F1000F07D0B2489E
:103C1000806A807A40F0E0008DF8100004E0AE4841
:103C2000806A807A8DF81000AB4A12689179AA4AAE
:103C30005268107804AB0122FDF71AFD10B14FF065
:103C4000FF3058E7B9F1000F07D0A348806AC07A67
:103C500040F0E0008DF8100003E0A048C07A8DF835
:103C600010009D4A1268D1799B4A5268107804ABC3
:103C70000122FDF7FDFC10B14FF0FF303BE7B9F139
:103C8000000F02D0C820FFF707F940208DF8100080
:103C9000914A12681179904A5268107804AB012257
:103CA000FDF7E6FC10B14FF0FF3024E778208DF8E7
:103CB0001000894A12685179874A5268107804AB1B
:103CC0000122FDF7D5FC10B14FF0FF3013E7834917
:103CD0008889FFF7E1F800208DF810007E4A12680D
:103CE00051797D4A5268107804AB0122FDF7C0FC7F
:103CF00010B14FF0FF30FEE6774A1268917A764AAB
:103D00005268107804AB0222FDF70CFC10B14FF0A2
:103D1000FF30F0E69DF811009DF8101040EA012BED
:103D20000C209BFBF0F0C6B20020A8606860286001
:103D3000A06060602060824665E0674A1268D17AC0
:103D4000654A5268107804AB0C22FDF7EBFB10B10A
:103D50004FF0FF30CFE69DF811009DF8101040EABB
:103D6000012000B2ADF808009DF813009DF8121074
:103D700040EA012000B2ADF80A009DF815009DF858
:103D8000141040EA012000B2ADF80C00BDF9081093
:103D9000206808442060BDF90A106068084460602B
:103DA000BDF90C10A0680844A0609DF817009DF8AC
:103DB000161040EA012000B2ADF800009DF819008D
:103DC0009DF8181040EA012000B2ADF802009DF8FD
:103DD0001B009DF81A1040EA012000B2ADF8040063
:103DE000BDF90010286808442860BDF90210686811
:103DF00008446860BDF90410A8680844A8600AF186
:103E0000010000F0FF0AB24597DB3448D0F800C04B
:103E10002868C117090441EA1041070462460023DB
:103E20003846FCF786FA32460023CDE90201FCF75A
:103E300080FA28602948D0F800C06868C1170904D2
:103E400041EA10410704624600233846FCF771FA44
:103E500032460023CDE90201FCF76BFA68601F4887
:103E6000D0F800C0A868C117090441EA104107044E
:103E7000624600233846FCF75CFA32460023CDE95F
:103E80000201FCF756FAA8601448D0F804C0216873
:103E9000C817000440EA11480F0462460023384660
:103EA0004146FCF746FA32460023CDE90201FCF711
:103EB00040FA20600948D0F804C06068C1170904BE
:103EC00041EA10410704624600233846FCF731FA04
:103ED0003246002304E00000A0000020A063000898
:103EE000CDE90201FCF725FA60601148D0F804C062
:103EF000A068C117090441EA104107046246002383
:103F00003846FCF716FA32460023CDE90201FCF7E9
:103F100010FAA060A068002804DDA068A0F5803039
:103F2000A06003E0A06800F58030A0600020E2E51A
:103F3000A0630008F0B52DED048B81B006460F4656
:103F400000253E49496808786B4603220D21FDF79C
:103F5000E9FA20B1072001B0BDEC048BF0BD9DF85B
:103F6000000000F01F008DF800009DF8010000F037
:103F70001F008DF801009DF8020000F01F008DF871
:103F80000200002455E056F8241057F82420881A1F
:103F9000002801DB014600E0414200EE101AB8EEB5
:103FA000C00ADFED270A80EE208A1DF8040068B3FE
:103FB000244890ED000AB8EE400ADFED230A80EEB7
:103FC000801AF0EE418A05E09FED200A28EE800A73
:103FD000F0EE408A1DF80400401EC0B20DF8040047
:103FE0000028F1D188EE280AF7EE000A30EE609A38
:103FF000B0EEC90A1348D0ED060AB4EEE00AF1EEBD
:1040000010FA15DD0120A040054311E00D4890EDA8
:10401000040AB4EEC80AF1EE10FA06DC90ED050AC7
:10402000B4EEC80AF1EE10FA02D20120A040054316
:10403000641C032CA7DB28468DE70000A0000020AD
:1040400000008047A063000800B04C4554E3853F62
:1040500010B52DED028BB0EE408A164890ED000AA7
:10406000B4EEC08AF1EE10FA03D290ED000AB0EE81
:10407000408A114890ED000AB4EEC08AF1EE10FAC1
:1040800003DD90ED000AB0EE408A0A48D0ED000A48
:1040900088EE200ADFED090A30EEC00ABCEEC00A45
:1040A00010EE100AC4B221460120FEF7DBF8BDEC89
:1040B000028B10BD080000200C000020000080438F
:1040C00010B50446204600F00FF80346E01C00F04F
:1040D0000BF843EAC00083B2A01D00F005F843EAE4
:1040E000801083B2184610BD014691F90020002AC5
:1040F00001DD00201EE091F90020002A01DA0420F1
:1041000018E091F90120002A01DD012012E091F967
:104110000120002A01DA05200CE091F90220002A92
:1041200001DD022006E091F90220002A01DA0620D2
:1041300000E00720704710B5FDF7F0F8002010BD33
:104140001CB501212020FDF759FC4FF440400090A0
:1041500001208DF8040003208DF8050000208DF863
:10416000060001208DF8070069462F48FCF716FD70
:1041700001202E4908602E49C1F8B80201214020D3
:10418000FDF73CFC0320009001208DF80400032083
:104190008DF8050000208DF8060001208DF807003D
:1041A00069462448FCF7FAFC0120234908602349AA
:1041B000C1F8800201210420FDF720FC302000908E
:1041C00001208DF8040003208DF8050000208DF8F3
:1041D000060001208DF8070069461948FCF7DEFC4F
:1041E0000120184908601849C1F8900201211020E7
:1041F000FDF704FC4FF4C070009001208DF804001E
:1042000003208DF8050000208DF8060001208DF8B0
:10421000070069460D48FCF7C1FC01200C49086005
:104220000C49C1F8A0021CBD00140240BC824242ED
:104230000080424200180240840243420000434290
:104240000008024094024142000041420010024036
:104250009C0242420000424270B50446002624F00F
:104260000104184890F8240008B1002070BD1548DA
:10427000807A10B94FF0FF30F8E71248057C807A59
:104280002040104908740846007CA04202D04FF03C
:10429000FF3600E0002614B90A48007D18B101205D
:1042A00001F0B0F802E0002001F0ACF83CB100F001
:1042B0003FFB20B1034805744FF0FF30D6E730468E
:1042C000D4E70000A000002070B50024FCF770FDCA
:1042D00000F02AF9002840D1782000F0D5FEC4B2C1
:1042E0000CB1012070BD7820FFF7B6FFC4B20CB14D
:1042F0000220F7E7642000F079FEC4B20CB103207D
:10430000F0E7FEF78FFFC4B20CB10420EAE71448CF
:10431000FFF7D6FE0546FFF7F9F8C4B20CB1052049
:10432000E0E740F27310FEF725FEC4B20CB10620A0
:10433000D8E76420FFF71AF8C4B20CB10720D1E720
:1043400000F0B0FF04460CB10820CBE7012000F0DC
:1043500049FDC4B20CB10920C4E70020C2E7000047
:10436000D800002001461148407A30B1012807D01A
:10437000022808D003280CD108E0022008700BE0C6
:104380000420087008E00820087005E0102008707C
:1043900002E04FF0FF30704700BF0448C07C18B106
:1043A00008784006000E08700020F4E7A000002006
:1043B00001461348407A30B1012808D002280AD0BB
:1043C000032810D10BE04FF4804008800EE041F646
:1043D0009C7008800AE04FF48050088006E04FF49B
:1043E0000060088002E04FF0FF30704700BF0448D3
:1043F000C07C10B10888401008800020F5E700005C
:10440000A000002001460248007C08700020704790
:10441000A000002001460F48007A30B1012807D0E3
:10442000022809D003280FD10AE0FA2008800EE004
:104430004FF4FA7008800AE04FF47A70088006E0C2
:104440004FF4FA60088002E00020088000BF00BF3F
:1044500000207047A000002001461248007A30B1C9
:10446000012809D002280CD0032814D10EE09FEDBA
:104470000E0A81ED000A11E09FED0C0A81ED000AA1
:104480000CE09FED0B0A81ED000A07E09FED090AA1
:1044900081ED000A02E04FF0FF30704700BF0020BE
:1044A000FBE70000A000002000000343000083425F
:1044B000333303423333834101461248C07A08281C
:1044C00017D2DFE800F01704070A0D101318BC20FC
:1044D000088013E06220088010E02A2008800DE0A8
:1044E000142008800AE00A20088007E005200880E0
:1044F00004E000BF00BF0020088000BF00BF002014
:1045000070470000A00000200146064890F82400F3
:1045100010B14FF0FF3070470248C089088000207A
:10452000F9E70000A00000201CB580208DF80000F5
:10453000654A1268917C644A526810786B46012281
:10454000FDF796F810B14FF0FF301CBD6420FEF768
:10455000A3FC00208DF800005B4A1268917C5A4A47
:10456000526810786B460122FDF782F810B14FF0C7
:10457000FF30EAE7544A1268917D534A5268107836
:104580006B460622FCF7CEFF10B14FF0FF30DCE7A0
:104590009DF80500C007400F9DF8031001F00101D0
:1045A00040EA41009DF8011001F0010140EA0104D8
:1045B00094B1012C03D101214348C17431E0022C94
:1045C00003D100214048C1742BE021463FA0FBF7F6
:1045D000D5FE4FF0FF30B8E73B4A1268D1783A4A2F
:1045E000526810786B460122FCF79CFF10B14FF027
:1045F000FF30AAE79DF8000000F00F042CB93D48F9
:10460000FBF7BCFE4FF0FF309FE7042C06D13AA029
:10461000FBF7B4FE01212C48C17402E000212A48B6
:10462000C174FF2128488172FF2027490872FF21A9
:1046300025484172C1724FF6FF71C181FF2101749B
:1046400081740121017380F82210002180F8231069
:10465000417501751630016041608160163880F83F
:10466000241080F82510C1844FF4FA6000F002FC99
:1046700010B14FF0FF3068E7022000F0CBFA10B124
:104680004FF0FF3061E72A2000F06EFC10B14FF0D0
:10469000FF305AE7322000F0A9FC10B14FF0FF3094
:1046A00053E70020FFF7D8FD10B14FF0FF304CE783
:1046B000002000F0F1FA10B14FF0FF3045E7002084
:1046C00000F0E2FC002040E7A0000020556E73756A
:1046D00070706F7274656420736F66747761726551
:1046E0002070726F64756374207265762025642E65
:1046F0000A000000D06F000848616C662073656E88
:104700007369746976697479207061727420666F58
:10471000756E642E0A0000002DE9F04385B0054651
:104720000E4690469946294890F8250020B14FF052
:10473000FF3005B0BDE8F08316B94FF0FF30F8E761
:10474000002423E0281B102801DD102000E0281B96
:1047500087B232193946204600F0FEFC10B14FF006
:10476000FF30E6E701AA3946204600F0A1F810B173
:104770004FF0FF30DDE730193A4601A9FBF70CFF97
:1047800010B16FF00100D4E7E01984B2AC42D9DB7C
:104790004FEA28208DF8000008F0FF008DF8010096
:1047A0000A4A1268917E094A526810786B460222C2
:1047B000FCF75EFF10B14FF0FF30BAE7012103486C
:1047C00080F82510A0F826900020B2E7A000002075
:1047D00038B50446282C02DD4FF0FF3038BDDCB977
:1047E000002000F08BFB00208DF8000007208DF8E2
:1047F00001002E4A1268917C2C4A526810786B4650
:104800000222FCF735FF10B14FF0FF30E6E7002140
:10481000264801750020E1E7012000F06FFB202011
:104820008DF80000012C06D100208DF80100052034
:1048300000F09AFB17E0052C06DC01208DF8010042
:10484000052000F091FB0EE0142C06DC02208DF810
:1048500001000A2000F088FB05E003208DF801002C
:10486000142000F081FB9DF80100072101EB80106E
:10487000C0B28DF801000D4A1268917C0B4A526853
:1048800010786B460222FCF7F3FE10B14FF0FF30B8
:10489000A4E70821054881720021017301210175F7
:1048A0000020FFF7D9FC002098E70000A0000020BE
:1048B000F8B504460D46164616B94FF0FF30F8BD60
:1048C0001A48807A10B94FF0FF30F8E720128DF8BF
:1048D0000000E0B28DF801009DF801002844134962
:1048E00049684989884202DD4FF0FF30E7E70F4A07
:1048F0001268117E0D4A526810786B460222FCF74E
:10490000B7FE10B14FF0FF30D9E7EAB2074B1B6892
:10491000597D064B5B6818783346FCF703FE10B1EF
:104920004FF0FF30CBE70020C9E70000A0000020D7
:1049300008B57048807A10B94FF0FF3008BD0020EC
:1049400000906C4A1268D17B6A4A526810786B46B4
:104950000122FCF78DFE10B14FF0FF30EEE7654A03
:1049600012685179634A526810786B460122FCF74D
:104970007FFE10B14FF0FF30E0E75E4A1268117918
:104980005C4A526810786B460122FCF771FE10B148
:104990004FF0FF30D2E7574890F82400002853D05A
:1049A0000C200090534A12681179524A52681078CC
:1049B0006B460122FCF75CFE10B14FF0FF30BDE703
:1049C0003220FEF769FAC02000904A48807A00F051
:1049D000010020B19DF8000040F020000090454A01
:1049E00012681179434A526810786B460122FCF72D
:1049F0003FFE10B14FF0FF30A0E73E48407C10B1C1
:104A00000220009001E0002000903A4A1268D17B19
:104A1000384A526810786B460122FCF729FE10B123
:104A20004FF0FF308AE700200090324A1268517937
:104A3000304A526810786B460122FCF719FE0028B4
:104A400055D04FF0FF3079E704200090294A1268D2
:104A50001179284A526810786B460122FCF708FE4B
:104A600010B14FF0FF3069E72248807C20B921481F
:104A7000807A00F0010010B94020009001E0602031
:104A800000901C4A126811791A4A526810786B46D5
:104A90000122FCF7EDFD10B14FF0FF304EE7322060
:104AA000FEF7FAF91348407C10B10120009001E0B4
:104AB000002000900F4A1268D17B0E4A526810788D
:104AC0006B460122FCF7D4FD10B14FF0FF3035E703
:104AD000084A12685179074A52681078054B10331A
:104AE0000122FCF7C5FD10B14FF0FF3026E7002092
:104AF00024E70000A00000202DE9F04F8DB0834690
:104B00000F4602200C90424890F8240020B100206B
:104B100000F068F9012600E0002603A8FFF77AFC00
:104B200005A8FFF71FFC01A8FFF7C6FC02A8FFF7C6
:104B3000EBFC374890F80AA004A8FFF763FC0024B8
:104B400007E0002239465846FEF7BCFF00B902E0F4
:104B5000641C022CF5DB00BF022C01D1002528E0EB
:104B6000002407E0012206A909A8FEF7ABFF00B95F
:104B700002E0641C022CF5DB00BF022C01D10025F1
:104B800017E006A93846FEF705F900F0FF0809A965
:104B90005846FFF7CFF900F0FF090025B9F1000FE3
:104BA00001D145F00105B8F1000F01D145F0020532
:104BB00000BFFF2016490872FF2115484172C172DB
:104BC0004FF6FF71C181FF218172017401210173D0
:104BD000BDF80C0000F04EF99DF8140000F01AF832
:104BE000BDF8040000F0C0F9BDF8080000F0FEF9BF
:104BF000504600F049FA9DF81000FFF72DFB16B162
:104C0000012000F0EFF828460DB0BDE8F08F00005D
:104C1000A000002038B504461E48807A10B94FF035
:104C2000FF3038BD022C06D0042C07D0082C08D049
:104C3000102C0CD108E0002000900BE00820009020
:104C400008E01020009005E01820009002E04FF0EE
:104C5000FF30E6E700BF0F48407A9DF80010B0EB48
:104C6000E10F01D10020DCE70A4A1268D179094A34
:104C7000526810786B460122FCF7FAFC10B14FF035
:104C8000FF30CEE79DF80000C110024841720020BD
:104C9000C7E70000A000002038B504465048807CDB
:104CA000A04201D1002038BD002C46D04C4A1268E9
:104CB00011794B4A526810786B460122FCF732FC9E
:104CC00010B14FF0FF30EEE79DF8000020F020001B
:104CD0000090434A12681179414A526810786B4635
:104CE0000122FCF7C5FC10B14FF0FF30DBE70320D9
:104CF000FEF7D2F802200090394890F8220020B147
:104D00009DF8000040F080000090354890F82300A6
:104D100020B19DF8000040F030000090304A126849
:104D2000117D2F4A526810786B460122FCF7A0FCD7
:104D3000002851D04FF0FF30B5E7294A12681179A9
:104D4000274A526810786B460122FCF7EBFB10B142
:104D50004FF0FF30A7E72248807A00F0010028B129
:104D60009DF8000040F02000009004E09DF8000055
:104D700020F0200000901A4A12681179184A5268EF
:104D800010786B460122FCF773FC10B14FF0FF3036
:104D900089E70320FEF780F8114890F8220010B14F
:104DA0008020009001E0002000900D4890F8230042
:104DB00020B19DF8000040F030000090084A1268D1
:104DC000117D074A526810786B460122FCF750FCAF
:104DD00010B14FF0FF3066E701488474002062E7AD
:104DE000A000002038B50446214890F82400A042D5
:104DF00001D1002038BD24B31D4890F8250010B91A
:104E00004FF0FF30F6E7002000F0FCFA0020FFF73B
:104E100043FF1749C88C00F0E9F8002000901449BE
:104E2000496808786B4601222321FCF721FC012107
:104E30000F4880F82410012000F0E4FAFFF778FD15
:104E400013E0002000F0DEFA0948007C00900849D9
:104E5000496808786B4601222321FCF709FC0021F0
:104E6000034880F82410FFF763FD0020C2E700002C
:104E7000A000002038B504461F48807A10B94FF0D2
:104E8000FF3038BDFA2C09D0B4F5FA7F09D0B4F55B
:104E90007A7F09D0B4F5FA6F0CD108E000200090B9
:104EA0000BE00820009008E01020009005E018209A
:104EB000009002E04FF0FF30E3E700BF0E48007AB9
:104EC0009DF80010B0EBE10F01D10020D9E70A4AAC
:104ED00012689179084A526810786B460122FCF7F3
:104EE000C7FB10B14FF0FF30CBE79DF80000C010BA
:104EF000014908720020C4E7A000002038B504462C
:104F0000184890F82300A04201D1002038BD14B108
:104F10003020009001E0002000901248807C20B1F9
:104F20009DF8000040F0020000900E4890F822002A
:104F300020B19DF8000040F080000090094A1268FE
:104F4000117D084A526810786B460122FCF790FBED
:104F500010B14FF0FF30D9E7024880F8234000201D
:104F6000D4E70000A000002038B504461E48807A2F
:104F700010B94FF0FF3038BDBC2C02DB012000908F
:104F800015E0622C02DB0220009010E02A2C02DBEC
:104F9000032000900BE0142C02DB0420009006E0BC
:104FA0000A2C02DB0520009001E0062000900E484C
:104FB000C07A9DF80010884201D10020DBE70A4A40
:104FC00012689178084A526810786B460122FCF703
:104FD0004FFB10B14FF0FF30CDE79DF800100248B5
:104FE000C1720020C7E70000A000002038B50446C9
:104FF0002448807A10B94FF0FF3038BD214890F82E
:10500000240010B14FF0FF30F7E71E48007D50B18B
:1050100034B1282C04DCE0B2FFF7DAFB0020ECE727
:105020000020FFF7D5FB042C01DA042404E0B4F5DA
:105030007A7F01DD4FF47A744FF47A7090FBF4F0CC
:10504000401EC0B200900F4A126851780D4A526853
:1050500010786B460122FCF70BFB10B14FF0FF30CC
:10506000CBE79DF80000401C4FF47A7191FBF0F003
:1050700081B20448C1810146C9894810FFF774FF15
:105080000020BAE7A000002038B5044604F0700004
:1050900010B10120009005E014B10020009001E063
:1050A000402000902B4A1268917C2A4A526810785E
:1050B0006B460122FCF7DCFA20B100212548817201
:1050C000481E38BD9DF8000020F0400121480173C2
:1050D0000020009004F0400020B99DF8000040F04E
:1050E0000400009004F0200020B99DF8000040F07A
:1050F0000200009004F0100020B99DF8000040F07C
:105100000100009004F0080020B99DF8000040F074
:10511000380000900F4A1268D17C0E4A526810780D
:105120006B460122FCF7A4FA20B1002109488172E4
:10513000481EC6E724B1082C02D00020FFF7DEFE8F
:1051400004488472002101753220FDF7A5FE00207D
:10515000B7E70000A0000020F8B504460D4616464B
:1051600016B94FF0FF30F8BD1A48807A10B94FF0E9
:10517000FF30F8E720128DF80000E0B28DF8010052
:105180009DF801002844134949684989884202DD95
:105190004FF0FF30E7E70F4A1268117E0D4A526860
:1051A00010786B460222FCF763FA10B14FF0FF3023
:1051B000D9E7EAB2074B1B68597D064B5B68187844
:1051C0003346FCF755FA10B14FF0FF30CBE7002023
:1051D000C9E70000A00000202DE9F04105460E4679
:1051E0001C4807681C480068001D00F053F950B9BE
:1051F0001948006890F82C10012088401749096868
:10520000814316480160681C38B936B112480168FC
:10521000091D134800F06CF91AE07C190E4800686B
:105220004460BC4207D20C480168091D0D48006863
:1052300000F044F90CE008480168091D0A480068BC
:1052400000F03CF909480068844201D20748046034
:10525000BDE8F0816C0000205800002070000020A4
:105260001C090020600000205C0000208800002055
:105270000A490968096809B9012100E0002121B142
:105280004FF0FF31064A116006E004490968C96819
:10529000C868034A41681160704700005C00002044
:1052A0008800002010B588B002A905A8FFF724FCEB
:1052B0000446032C41D101A8FFF7CEF89DED050A65
:1052C000B8EEC00ADDED010A20EE200ABDEEC00AEC
:1052D0008DED050A9DED060AB8EEC00ADDED010A66
:1052E00020EE200ABDEEC00A8DED060A9DED070AEC
:1052F000B8EEC00ADDED010A20EE200ABDEEC00ABC
:105300008DED070A05A8FEF769F86846FFF750F823
:10531000BDF80010029848430290BDF800100398B1
:1053200048430390BDF8001004984843049002A835
:10533000FDF784FF002008B010BD0120FBE700004E
:105340002DE9F0412DED068B0546280300F091FD77
:1053500041EC1A0B9FED250B53EC102B00F0DCFDFC
:1053600041EC190B53EC192B9FED220B51EC100B58
:1053700000F0FAFB41EC180B9FED200B53EC102BC7
:1053800051EC180B00F03CFB41EC1A0BB0EE4A0A52
:10539000F0EE6A0AFDF768FCB0EE409AF0EE609A13
:1053A00051EC190B00F038FD401EC6B20020FCF78E
:1053B000F1FA044604F07F0040F01007394600205F
:1053C000FCF705FB3146FE20FCF701FB21460020DF
:1053D000FCF7FDFA0520FDF75FFD44F0A101002078
:1053E000FCF7F5FABDEC068BBDE8F08148E17A14D4
:1053F000AE47ED3F0000000084D777410000000079
:105400000000E03F38B50446214890F82400C0B1C0
:1054100014B10220009001E0002000901C4A1268A4
:10542000D17B1B4A526810786B460122FCF720F9A9
:1054300010B14FF0FF3038BD9DF800101448417492
:1054400023E01348807A10B94FF0FF30F3E724B11E
:105450000F48407C08B10020EDE714B10120009016
:1054600001E0002000900A4A1268D17B084A526885
:1054700010786B460122FCF7FBF810B14FF0FF30BB
:10548000D9E79DF80010024841740020D3E70000DE
:10549000A000002001460A69D1E901309860D1E9F5
:1054A000010358605068884201D18868506000202C
:1054B00008611068401E10601068704710B5024601
:1054C0000B685C1C0CB9106907E002F1080000E0F1
:1054D0004068446824689C42FAD944684C604C682F
:1054E000A160886041600A611468641C146010BD8A
:1054F00042684A6093688B60936859609160086164
:1055000003685B1C0360704710B500BF502080F338
:105510001188BFF34F8FBFF36F8F00BF0B48006838
:10552000401C0A4908600846006801280DD1084857
:105530000068C0B208B9012000E0002028B940F29C
:10554000B91204A10EA0FAF719FF10BD94000020B3
:1055500004ED00E02E2E5C4672656552544F535C9C
:10556000706F727461626C655C525644535C415258
:105570004D5F434D34465C706F72742E63000000C3
:105580004572726F723A25732C25640D0A00000073
:1055900010B50B48006828B94FF4E07209A114A0B7
:1055A000FAF7ECFE06480068401E05490860084608
:1055B000006820B9002080F3118800BF00BF10BD33
:1055C000940000202E2E5C4672656552544F535C49
:1055D000706F727461626C655C525644535C4152E8
:1055E0004D5F434D34465C706F72742E6300000053
:1055F0004572726F723A25732C25640D0A00000003
:1056000070B504460025ACB10F48006808B9012008
:1056100000E0002028B940F2CF420CA110A0FAF718
:10562000ADFE00F027F800212046FFF7D5FD00F081
:1056300057F905463DB94FF080500D490860BFF35A
:105640004F8FBFF36F8F70BD900000202E2E5C46F1
:1056500072656552544F535C7461736B732E6300B3
:105660004572726F723A25732C25640D0A00000092
:1056700004ED00E002480068401C014908607047E2
:105680009000002010B51B48006818B101201A498D
:1056900008602DE000201849086018480068B0FA3A
:1056A00080F0C0F11F0404EB8400154951F820007C
:1056B00008B1012000E0002028B940F6F62211A12F
:1056C00015A0FAF75BFE04EB84010D4A02EB8100A2
:1056D00041684968416000F1080142688A4202D18C
:1056E0004168496841604168C9680F4A116000BF5C
:1056F00010BD0000900000207C0000207000002001
:105700004C0600202E2E5C4672656552544F535C49
:105710007461736B732E63004572726F723A2573F6
:105720002C25640D0A0000005800002010B500BFB1
:10573000502080F31188BFF34F8FBFF36F8F00BFEE
:1057400000F01EF818B14FF080500449086000BF07
:10575000002080F3118800BF10BD000004ED00E0C0
:105760000549096809B9012005E00449096809B932
:10577000022000E00020704774000020900000200C
:105780002DE9F0414FF0000841480068002872D12F
:1057900040480068451C3F480560EDB93E48006838
:1057A000006808B9012000E0002028B940F6D912AD
:1057B0003AA13FA0FAF7E2FD374807684048006881
:1057C000354908603E4807603E480068401C3D4936
:1057D0000860FFF74DFD00BF3B48006885423CD3A1
:1057E00000BF2D480068006808B9012000E00020D3
:1057F00020B14FF0FF30344908602DE026480068A2
:10580000C068C4686668B54202D22F48066023E0CB
:10581000201DFFF73FFEA06A18B104F11800FFF742
:1058200039FE94F82C100120884028490968084363
:1058300026490860E16A01EB8101254A02EB8100FB
:10584000211DFFF755FE2349E06A0968C96A8842AD
:10585000C7D34FF00108C4E700BF1E480068C06A04
:1058600000EB80001A4951F82000012801D94FF0BF
:10587000010805E0FFE718480068401C1649086069
:105880001648006808B14FF001084046BDE8F081B5
:10589000900000206C0000205C0000202E2E5C4652
:1058A00072656552544F535C7461736B732E630061
:1058B0004572726F723A25732C25640D0A00000040
:1058C0006000002080000020880000207000002080
:1058D0004C06002058000020780000207C000020AA
:1058E00070B5002400263448006828B94FF4FD62E2
:1058F00032A137A0FAF742FDFFF706FE2E480068F6
:10590000401E2D4908600846006800284FD13448E1
:10591000006800284BD024E03248C068C46804F115
:105920001800FFF7B7FD201DFFF7B4FD94F82C1009
:10593000012088402C49096808432B490860E16A26
:1059400001EB8101294A02EB8100211DFFF7D0FD07
:105950002749E06A0968C96A884202D301202549BB
:1059600008602048006808B9012000E000200028F5
:10597000D2D00CB1FFF77CFC1F48056865B100BFB1
:10598000FFF7FEFE10B101201A4908606D1E002DC0
:10599000F6D10020184908601648006838B1012681
:1059A000300716490860BFF34F8FBFF36F8FFFF7C3
:1059B000EFFD304670BD0000900000202E2E5C46AA
:1059C00072656552544F535C7461736B732E630040
:1059D0004572726F723A25732C25640D0A0000001F
:1059E00068000020F4080020700000204C06002011
:1059F000580000207C0000207800002004ED00E02A
:105A000010B591EA030F48BF83F0004300F1CC8347
:105A1000841A71EB030C05D2121943EB0C03001B23
:105A200061EB0C01DFF824E14FEA1154A4EB135CA5
:105A30001EEA430F18BF9EEA445F73D023EA0E03A9
:105A4000DCF1200E21EA045143F4801332D322FA10
:105A50000CFE10EB0E0023FA0CFE41EB0E01CCF114
:105A6000200E03FA0EFE10EB0E0051F10001B1F50D
:105A7000801FCCF1200E32D201EB045112FA0EF24B
:105A8000BDE8104058BF7047401C38BF5FEA420273
:105A900018BF7047002814BF20F0010041F1000139
:105AA0004FEA410313F5001F38BF7047A1F1C04111
:105AB00000F02ABB012A43EB0302ACF1200CDCF11D
:105AC0001F0E32BF4FF0000E23FA0CF310EB030051
:105AD00041EB0451B4EB115FD0D0A1EB045101F5BF
