:020000040800F2
:10000000A010002081030008594D00081940000885
:10001000394D0008D91B0008657000080000000079
:10002000000000000000000000000000C9020008FD
:100030005D3B0008000000001D030008C15B0008D4
:100040009B0300089B0300089B0300089B03000818
:100050009B0300089B0300089B0300089B03000808
:100060009B0300089B030008FD3C00089B0300085D
:100070009B0300089B0300089B0300089B030008E8
:100080009B0300089B0300089B0300089B030008D8
:100090009B0300089B0300089B0300089B030008C8
:1000A0009B0300089B0300089B0300089B030008B8
:1000B0009B030008056500089B0300089B030008DC
:1000C0009B0300089B0300089B0300089B03000898
:1000D0009B030008696A00089B030008F16A000896
:1000E0009B0300089B0300089B0300089B03000878
:1000F0009B0300089B0300089B0300089B03000868
:100100009B0300089B0300089B0300089B03000857
:100110009B0300089B0300089B0300089B03000847
:100120009B0300089B0300089B0300089B03000837
:100130009B0300089B0300089B0300089B03000827
:100140009B0300089B0300089B0300089B03000817
:100150009B0300089B0300089B030008156C000824
:100160009B0300089B0300089B0300089B030008F7
:100170009B0300089B0300089B0300089B030008E7
:100180009B0300089B03000800F002F800F08CF8C5
:100190000AA090E8000C82448344AAF10107DA45E2
:1001A00001D100F081F8AFF2090EBAE80F0013F0A8
:1001B000010F18BFFB1A43F001031847F0F80000C5
:1001C00010F900000A444FF0000C10F8013B13F046
:1001D000070408BF10F8014B1D1108BF10F8015BA0
:1001E000641E05D010F8016B641E01F8016BF9D193
:1001F00013F0080F1EBF10F8014BAD1C0C1B09D1EA
:100200006D1E58BF01F801CBFAD505E014F8016B5B
:1002100001F8016B6D1EF9D59142D6D370470000ED
:100220000023002400250026103A28BF78C1FBD8FF
:10023000520728BF30C148BF0B60704766290CF0D9
:100240000486692900F05081642900F04D817529E8
:1002500000F04A816F2900F0E181782900F00682E0
:100260000368DB0928BF41F08001632900F0D086D4
:10027000732900F0D586E32900F0F286002070474C
:100280001FB50CF0D8FD00F041FF04000020002154
:100290000BF00AFF401C6060002000210BF0EEFE16
:1002A000E0601FBD10B510BD01F038F81146FFF732
:1002B000E7FF0AF01CF801F056F803B4FFF7F2FF6D
:1002C00003BC07F038FD00002A4B19680868B0E845
:1002D000F04F80F30988BFF36F8F4FF0000080F379
:1002E000118870470000000006480068006880F32D
:1002F000088862B661B6BFF34F8FBFF36F8F00DF20
:1003000000BF00BF08ED00E0DFF80C00016841F419
:1003100070010160704700BF88ED00E0EFF30980D5
:10032000BFF36F8F134B1A681EF0100F08BF20ED3C
:10033000108A20E9F04F106008B44FF0500080F3AD
:100340001188BFF34F8FBFF36F8F0BF0D9FC4FF0C5
:10035000000080F3118808BC19680868B0E8F04F05
:100360001EF0100F08BFB0EC108A80F30988BFF3AD
:100370006F8F7047E4000020EFF3058070470000A6
:100380000948804709480047FEE7FEE7FEE7FEE729
:10039000FEE7FEE7FEE7FEE7FEE7FEE70448054965
:1003A000054A064B70470000DD5C00088901000823
:1003B000A00A0020A0100020A00C0020A00C00200B
:1003C000704710B54C1084EA530404D54042C1F183
:1003D000000138BF491E1B4204D55242C3F100033D
:1003E00038BF5B1E00F008FB14F0804F04D0404281
:1003F000C1F1000138BF491E14F0004F04D0524231
:10040000C3F1000338BF5B1E10BD00000FB40449E8
:1004100010B503AA029800F007FE10BC5DF814FBAB
:10042000C800002070B5044685690068C10601D582
:10043000302600E02026C00707D070BDD4E9012196
:1004400030469047206A401C20626D1EF6D570BD74
:1004500070B5044685690078C00707D170BDD4E93E
:10046000012120209047206A401C20626D1EF6D595
:1004700070BD09684A0501D540B27047C905FCD571
:1004800000B2704709684A0501D5C0B27047C90576
:10049000FCD580B2704770B50C460546012A05D0E0
:1004A0002878800600D5EA69002302E0012305E0F0
:1004B0005B1C934202D2E05C0028F9D1A869E618DF
:1004C000C01AA861286A184428622846FFF7AAFFC4
:1004D00004E0D5E9012114F8010B9047B442F8D3A8
:1004E0002846FFF7B5FF70BD2DE9F0410646002410
:1004F00010687529314616A510D0FFF7BAFF0028FD
:1005000002DA404213A507E031688A0701D512A537
:1005100002E0490704D511A5012401E0FFF7B2FF6D
:1005200000210A2206F1240709E0B0FBF2FCB0FB2F
:10053000F2F302FB1C00303078541846491C0028A6
:10054000F3D123462A463046BDE8F04100F0D6BA42
:10055000000000002D0000002B0000002000000023
:100560002DE9FF5F15468A460446DFF8AC80F84463
:100570000027D8E900103E46CDE9001010E03AF817
:1005800016106A4602A800F077FD411C07D02178BA
:10059000890603D5E269391891420DD80744761CC3
:1005A0002078800602D5E069B84205DDAE42E6DB80
:1005B0003AF816000028E2D1A069C01BA0612046CD
:1005C000FFF730FFD8E90010CDE90010002017E058
:1005D0003AF818106A4602A800F04EFDB0F1FF3F4D
:1005E00081460BD000250DF1080B05E0D4E901216F
:1005F0001BF8050090476D1C4D45F7D308F101002D
:10060000B0428046E4DB206A384420622046FFF78F
:100610001FFFBDE8FF9F00001EF3000070B50446F9
:1006200021461068FFF72EFF002104F1240505E0A4
:1006300000F007023032C0086A54491C0028F7D184
:100640002068002307A2050707D5800600D421B142
:10065000E069012304A2401EE0612046BDE870402D
:1006600000F04CBA000000003000000070B50446F5
:100670000D4621461068FFF705FF2188090502D5C0
:100680000F4A7A4402E00E4A7A440E32002104F105
:10069000240305E000F00F060009965D5E54491C36
:1006A0000028F7D120780023000704D5702D02D050
:1006B00009B1022311322046BDE8704000F01EBA95
:1006C00012F200002DE9F05F894604464FF0000A5F
:1006D000DFF874B1FB44C0F820A02046E1688847E9
:1006E000002874D0252806D0D4E901219047206A3B
:1006F000401C2062F1E700265F462046E1688847FB
:100700002028054607DB312D05D2781910F8200C7A
:1007100008B10643F1E7B00701D526F00406C4F896
:100720001CA00027C4F818A02A2D09D0284607F0DD
:10073000FBFA38B304EB8708303DC8F8185019E0CD
:1007400059F8041B204604EB87029161E168884751
:10075000012F054618D1E069002820DA26F020068E
:100760001DE0D8F8180000EB800005EB40003038A1
:10077000C8F818002046E1688847054607F0D4FA13
:100780000028EED1012F0AD02E2D08D12046E16895
:1007900088477F1C0546022F46F02006C4DBA0696F
:1007A000002803DA404246F00106A061F00701D0BC
:1007B00026F010066C2D0BD0682D09D04C2D39D0A9
:1007C0006A2D35D0742D35D07A2D33D016E038E02F
:1007D000E1682F4620468847B842054609D16C2F6C
:1007E00026D04FF48060E1680643204688470546DE
:1007F00004E06C2F1AD04FF4807006430DB3A5F1BE
:100800004100192802D8203546F400664A46294698
:10081000204626604E46FFF711FD80B101280BD01F
:10082000F61D26F0070000F1080956E74020E4E72E
:100830008020D8E70020D6E706F104094DE72846D6
:1008400052E7206ABDE8F09FE8F1000040EA0103AA
:1008500010B59B070FD1042A0DD310C808C9121F69
:100860009C42F8D020BA19BA884201D9012010BDA3
:100870004FF0FF3010BD1AB1D30703D0521C07E070
:10088000002010BD10F8013B11F8014B1B1B07D1D4
:1008900010F8013B11F8014B1B1B01D1921EF1D145
:1008A000184610BD032A40F2308010F0030C00F00F
:1008B000158011F8013BBCF1020F624498BF11F89A
:1008C00001CB00F8013B38BF11F8013BA2F1040253
:1008D00098BF00F801CB38BF00F8013B11F00303CB
:1008E00000F02580083AC0F0088051F8043B083A2F
:1008F00051F804CBA0E80810F5E7121D5CBF51F8D1
:10090000043B40F8043BAFF30080D20724BF11F84A
:10091000013B11F801CB48BF11F8012B24BF00F8AF
:10092000013B00F801CB48BF00F8012B704710B520
:10093000203AC0F00B80B1E81850203AA0E81850D7
:10094000B1E81850A0E81850BFF4F5AF5FEA027C98
:1009500024BFB1E81850A0E8185044BF18C918C007
:10096000BDE810405FEA827C24BF51F8043B40F8A8
:10097000043B08BF7047D20728BF31F8023B48BF8D
:1009800011F8012B28BF20F8023B48BF00F8012BCB
:10099000704702F0FF0343EA032242EA024200F0FA
:1009A0008DBB4FF0000200B51346944696462039A1
:1009B00022BFA0E80C50A0E80C50B1F12001BFF418
:1009C000F7AF090728BFA0E80C5048BF0CC05DF87E
:1009D00004EB890028BF40F8042B08BF704748BFCC
:1009E00020F8022B11F0804F18BF00F8012B704740
:1009F000704770477047704753EA020C00F06980F7
:100A00002DE9F04B4FF00006002B1FBFB3FA83F522
:100A100003FA05F424FA05F65E4012BF1643B2FA53
:100A200082F502FA05F4C5F120051EBF22FA05FC85
:100A300044EA0C04203556EA044C4FEA144418BF2B
:100A4000641C4FF000084FF00009904271EB030C5A
:100A500039D3002919BFB1FA81F701FA07F6B0FAC4
:100A600080F700FA07F6C7F120071EBF20FA07FC3F
:100A700046EA0C062037B6FBF4FCA7EB0507103F4F
:100A800007F01F0BCBF120060CFA0BFB2CFA06F635
:100A900044BFB3460026202FA4BF5E464FF0000B94
:100AA0005BEA060C08BF4FF0010B19EB0B09ABFB1F
:100AB000027C48EB0608C01B06FB02CC0BFB03CCF8
:100AC00071EB0C01C1E70B46024641464846BDE8C2
:100AD000F08B13B54FF000004FF00001AFF3008032
:100AE000BDE81C40704710B500F014FB006810BD55
:100AF00010B5044600F00EFB046010BD2DE9F04770
:100B00000D4699469246044600F12408016888067D
:100B100004D5E06921F01001216000E00120A84225
:100B200001DD471B00E00027A1697A1902EB0900EB
:100B3000081AA0612078C00602D42046FFF772FC94
:100B4000002608E0D4E901211AF806009047206A3F
:100B5000401C761C20624E45F4DB2078C0060AD586
:100B60002046FFF75FFC06E0D4E9012130209047E2
:100B7000206A401C2062381EA7F10107F4DC07E060
:100B8000D4E9012118F805009047206A401C206232
:100B9000281EA5F10105F3DC2046FFF759FC20785B
:100BA000000602D50220BDE8F0870120FBE7704770
:100BB0002DE9FF4F0C461E464FF0FF378BB0D2E9B0
:100BC0000001DDF860800A908A46C1F30A5505B934
:100BD0003D46002108464FF00000BAF1000F00F436
:100BE000400005DA00EB80004FF4400101EA5000BC
:100BF0004FEA9059B9F1010F00DDB9460A9850EA61
:100C00004A000ED044F61050A5F2FF3545432F148C
:100C1000B8F1000F1ED07542291E1EDDC9F1000279
:100C20001CE0B8F1010F4FF0000001D0302103E0CB
:100C3000F24305E02154401CB042FBDB3046002269
:100C4000002121540B99C1F80880C1E900200FB0A0
:100C5000BDE8F08FBD1B6D1CDEE74A4600DA694235
:100C600006A800F0E1FA06AB93E8070003AB83E8BF
:100C7000070050460A9900F0BFFB8DE80700A0F579
:100C800000501F3800900398002D0ADD42F21F012A
:100C90004A460844002303A90390684600F028FE52
:100CA00009E0A0F500504A461F38002303A903902D
:100CB000684600F032FE8DE807000004000C03D007
:100CC0004FF0FF30410800E01046B8F1000F03D0AC
:100CD0000022009215461EE0751E05D400F01EFA93
:100CE000303262556D1EF9D5B3460122084302D059
:100CF00000227F1C04E02078302801D100227F1ED2
:100D0000002A099784D01DE0112D07DA00F006FAB9
:100D1000303262556D1C50EA0102F5D1084302D011
:100D20000098C8B10EE00021681E05E0235C625CFB
:100D300063542254401E491C8142F7DBAB46A81B7A
:100D4000401E0990002004F80B000B98099AC0F887
:100D50000880C0E9002B7AE711264FF0000857E71A
:100D60002DE9F04F88460446D21D22F0070191B0CC
:100D7000D1E90001CDE90A0106F026FA02460B98F6
:100D8000C00F01D02D2007E02068810701D52B205E
:100D900002E0202101EAC000032A099001D0072ABD
:100DA00005DB03464146204600F0FEF90BE12078C2
:100DB000800601D5E06900E00620B8F1650F8146A4
:100DC00006D0B8F1660F18D0B8F1670F70D131E0D6
:100DD0000020B9F1110F009001DB112301E009F1AE
:100DE00001030AAA01A90CA8FFF7E2FEDDE90C70D5
:100DF000002609F10105834647E001204B4600909B
:100E00004FF000470AAA01A90CA8FFF7D1FEDDE9BF
:100E10000DB00C995D46002610B909F101000D18BE
:100E2000B9EB050003D4C0F1FF3609F10105A5EBCC
:100E300009002BE0B9F1010F01DA4FF001090020A0
:100E4000B9F1110F0090484601DD112300E003467F
:100E50000AAA01A90CA8FFF7ABFEDDE90C704D460C
:100E600000268346207800070AD4AB4500DA5D46A9
:100E700001A8012D04DD411911F8011C302907D00A
:100E80004F4502DA17F1040F04DA012082460FE021
:100E90006D1EEEE7002F02DCED1B3E4403E0781CE4
:100EA000A84200DD7D1CB81B00F1010A4FF000478D
:100EB0002078000703D4AA4501DB4FF0FF3A002158
:100EC000B7F1004F0DF143088DF8431024D00220F4
:100ED0002B23002F01DA7F422D230A21021EA0F1CD
:100EE000010000DC5FB197FBF1FC97FBF1F201FB25
:100EF0001C7C17460CF1300C08F801CDEEE7A8F188
:100F0000010003702188090501D5452100E0652114
:100F1000A0F1010800F8011C09980FA9A1EB08072E
:100F2000FF1D00B10120411901EBEA70A1693844AD
:100F3000081A401EA0612078C00602D42046FFF7A0
:100F400071FA099828B1D4E901219047206A401C20
:100F500020622078C00622D52046FFF763FA1EE003
:100F6000002E04DBB34502DD01A8805D00E03020E7
:100F7000D4E901219047206A401C2062761CAAF126
:100F800001005FEA000A0AD100F0C0F8C0680168F9
:100F9000405CD4E901219047206A401C2062281E51
:100FA000A5F10105DCDC07E0D4E9012118F8010B0B
:100FB0009047206A401C2062381EA7F10107F3DC2D
:100FC0002046FFF745FA032011B041E601694A1CAB
:100FD00002610878704700B58FB0CDE9013100217A
:100FE000059105497944CDE9031011466846FFF79C
:100FF00069FB0FB000BD0000E5FFFFFF10B54369BE
:1010000013B1AFF3008001E0FFF745FA012010BDF6
:10101000127800F124010A7000224A700122EDE7E3
:1010200011684FF0FF32E9E7074B70B50D467B447E
:10103000FFF7D1FF0446284600F068F910B14FF0E1
:10104000FF3070BD204670BD638B000010B5436952
:1010500013B1AFF3008001E0FFF782FA012010BD69
:10106000128800F1240182840022C2840122EDE76B
:1010700011684FF0FF32E9E770B516460C46054699
:1010800000F03CF8036893F80101012806D0FF2C1A
:101090000FD8185D68B101202C7070BDD3F807011E
:1010A0003246214603F2071303442846BDE8704048
:1010B00018474FF0FF3070BD4FF000020429C0F018
:1010C000128010F0030C3FF46EACCCF1040CBCF1B8
:1010D000020F18BF00F8012BA8BF20F8022BA1EBCC
:1010E0000C01FFF760BC5FEAC17C24BF00F8012B54
:1010F00000F8012B48BF00F8012B704710B500F035
:1011000005F8001D10BD00BFA1AF000000487047EA
:10111000600A002000487047400A002030B5B0F156
:101120000A024FEA900E71F100034EEA817EB0EBA5
:101130000E0061EB91014FEA101E4EEA017E10EBAA
:101140000E0041EB11114FEA102E4EEA016E10EB2A
:101150000E0041EB11214FEA104E4EEA014E10EB0A
:101160000E0041EB1141401841F100014FEAD0005F
:1011700040EA41704FEAD10110EB80054FEA81044B
:1011800044EA907444EB01046D1944EB0404521BCF
:10119000A3414FF0000348BF0A3200D530BD401CC8
:1011A00041F1000130BD00002DE9F0411F46044629
:1011B00003260168072A01F4006004DB08B116A5C4
:1011C00005E016A503E008B115A500E015A521F07E
:1011D00010002060A069C01EA0610FB1401EA06178
:1011E0002046FFF71FF94FB1D4E901213846904757
:1011F000206A401C2062C01C206206E0206AFAE7D8
:10120000D4E9012115F8010B9047761EF8D220464B
:10121000FFF71EF9BDE8F0814E414E006E616E0091
:10122000494E4600696E66002DE9F0478146164634
:101230008AB0354878440DC88DE80D0032487844AE
:10124000801C03AC0DC884E80D0041F69B300844B7
:10125000372190FBF1F290FBF1F5A5F1800501FB40
:1012600012041B3C02D56442012000E00020DFF89C
:1012700098A080460027FA44AAF1BE0A0EE0E007D3
:101280000AD03246684607EB470101230AEB810189
:1012900000F043FB8DE8070064107F1C002CEED1AA
:1012A000194F7F44AE3F19E0E80715D007EB041053
:1012B0000DF1180A90E80E008AE80E00C068F042AE
:1012C00001D1981908903246012306A903A800F01D
:1012D00024FB03AB83E807006D10641C002DE3D1F1
:1012E0004FF0010332466946B8F1000F03A802D05F
:1012F00000F0FEFA01E000F010FBC9E90001C9F8B6
:1013000008200AB0BDE8F0870CE80000007B00F080
:101310008000704700487047400A00207546FFF77C
:10132000F9FFAE4605006946534620F007008546A2
:1013300018B020B5FFF732F8BDE820404FF00006A6
:101340004FF000074FF000084FF0000B21F00701AD
:10135000AC46ACE8C009ACE8C009ACE8C009ACE8F0
:10136000C0098D46704710B50446AFF30080204693
:10137000BDE81040FEF7A1BF4FF0013C50F8042B30
:1013800051F8043B9A4221D1A2EB0C03934313EA98
:10139000CC1317D150F8042B51F8043B9A4215D1C5
:1013A000A2EB0C03934313EACC130BD150F8042B9C
:1013B00051F8043B9A4209D1A2EB0C03934313EA80
:1013C000CC13DBD04FF00000704700BFD01A01BA39
:1013D000B1FA81F101F0180122FA01F0CB40C1F11C
:1013E0002001DBB2C0B2C01A2CFA01F3D11A91432A
:1013F00011EAC311E6D170475FEA400C08BF91F0D3
:10140000000F4FEA8C234FEAC12243EA51514FEAC1
:101410001C5018BF00F5F0404FEA300018BF41F0F3
:1014200000415FEA6C5C00F02980BCF1FF3F08BF1F
:1014300040F080407047130C06BF12044FF0100CB0
:101440004FF0000C130E04BF12020CF1080C130F26
:1014500004BF12010CF1040C930F04BF92000CF1B5
:10146000020CD30F04BF52000CF1010C11464FF0D7
:101470000002A0F11F00A0EB0C00704711F0004F1C
:1014800008BF704731F000413FF4D5AF0B0C06BFE9
:1014900009044FF0100C4FF0000C0B0E04BF0902B2
:1014A0000CF1080C0B0F04BF09010CF1040C8B0F9D
:1014B00004BF89000CF1020CCB0F04BF49000CF1F2
:1014C000010CCCF12003A0EB0C0022FA03F302FA8A
:1014D0000CF241EA030100F10100704720F07F4C5B
:1014E00080EA030023F07F47ACEB070303F57C534E
:1014F00000F0004003F1FF032DE980494FEA154B4E
:1015000009B44FEA144325EA0B4E24EA03480FF2CC
:10151000042606EB132749083E785FEA320203FBF4
:101520000667C7F5000707FB06F64FEA54374FEA90
:10153000D64606F1020607FB066CCCF1005C4FEACA
:101540001C472CEA074C07FB06F40CFB06F504EBE2
:1015500015464FEA961634BF00204FF000404FEA80
:10156000D13706FB07FC4FEA1C4C0CFB0BF7D21BD8
:1015700003FB0CF761EB07010CFB0EF7B0EB074028
:1015800072EB17420CFB08F734BFA2EB0742B2EB39
:10159000074261EB17414FEA0C444FEA910706FB03
:1015A00007FC4FEA1C4C0CFB0BF7B0EBC74072EB8F
:1015B000573203FB0CF734BFA2EBC742B2EBC74272
:1015C00061EB57310CFB0EF7B0EBC70072EB5772B3
:1015D0000CFB08F734BFA2EBC702B2EBC70261EB0A
:1015E0005771039F4FEA816141EA921104EBCC04E9
:1015F0004FEAD1374FEA826206FB07FC42EA9012BB
:101600004FEA80604FEA1C4C0CFB0BF7D21B03FB2C
:101610000CF761EB07010CFB0EF7B0EB074072EB28
:1016200017420CFB08F734BFA2EB0742B2EB0742AC
:1016300061EB17414FEA8C554FEA910704EB9C246C
:1016400006FB07FC4FEA1C4C0CFB0BF7B0EBC7404A
:1016500072EB573203FB0CF734BFA2EBC742B2EB7D
:10166000C74261EB57310CFB0EF7B0EBC70072EBD2
:1016700057720CFB08F734BFA2EBC702B2EBC702EC
:1016800061EB577115EB4C254FEA816141EA9211EC
:101690004FEA82624FEAD13742EA901206FB07FC1A
:1016A00044F100044FEA80604FEA1C4C0CFB0BF73E
:1016B000D21B03FB0CF761EB07010CFB0EF7B0EB41
:1016C000074072EB17420CFB08F734BFA2EB07424E
:1016D000B2EB074261EB174115EB1C154FEA813164
:1016E00041EA92414FEA823242EA90424FEA803028
:1016F0004FEA0C7644F1000448EA03434EEA0B48F3
:101700004FF0000EB2EB080C71EB030724BF6246EA
:1017100039464EEB0E0E4FF0000B00185241494176
:101720004BEB0B0BB2EB080C71EB03077BF1000BDF
:1017300024BF624639464EEB0E0E4FF0000B0018E8
:10174000524149414BEB0B0BB2EB080C71EB030719
:101750007BF1000B24BF624639464EEB0E0E51EA78
:10176000020718BF46F0010616EB0E7655F100028F
:1017700054F1000103D5BDE88901BDE80088BDE84A
:101780008901BDE80048B619524141EB0101A3F1BE
:101790000103704780807F7E7D7C7B7A79787776C5
:1017A00076757473727171706F6E6E6D6C6C6B6A3E
:1017B0006A696868676666656464636362616160DC
:1017C000605F5F5E5E5D5D5C5C5B5B5A5A59595859
:1017D00058575756565555555454535352525251C3
:1017E000515050504F4F4F4E4E4D4D4D4C4C4C4B19
:1017F0004B4B4A4A4A494949484848474747474660
:10180000464645454544444444434343434242429B
:1018100042414141002B9C4630D477002BD01CB56F
:101820004FEA370703B44FF010004FF01001BAF140
:10183000000F06D0BCF1000FDCBF40F0080040F004
:1018400008014FF000000FBCBDE810400BF1010B88
:10185000BBF1010F08BF5FEA170722BF12F10102B7
:1018600011F101014FF0004143F1000300F000408D
:1018700043EA00007047F9D35708D0E746EA064626
:1018800013F1400F4FEA16461FDD13F1200FDFBFA3
:1018900016430A46002120335B42BED0C3F1200725
:1018A00046EA064602FA07F74FEA164646EA0706F0
:1018B000C3F1200722FA03F201FA07F721FA03F134
:1018C0004FF0000342EA0702A7E746EA020646EAAB
:1018D00006464FEA164646EA0106BCBF46EA0646F9
:1018E000360C4FF000034FF000024FF0000194E778
:1018F0002DE9804C9A46934670B491E8380007C8A9
:1019000031EA400C48BF34EA430C03D5FFF7E6FD4B
:10191000FFF780FFF0BCBDE8008C2DE9804C9A46B3
:10192000934670B491E8380007C810F0804F08BFA4
:1019300013F0804F03D100F005F8FFF76BFFF0BC08
:10194000BDE8008C20F07F4780EA030023F07F4C45
:1019500007EB0C03A3F57C5300F00040A3F1FE035A
:1019600092F0000F00F0B38095F0000F00F0778048
:101970002DE901494FEA11404FEA144621EA004897
:1019800000FB06FC24EA064708FB06F607FB08F8FE
:1019900000FB07F718EB06484CEB164C4FEA124BCE
:1019A00018EB07484FEA15464CEB174022EA0B4E5E
:1019B0000BFB06FC25EA06470EFB06F607FB0EFEB0
:1019C0000BFB07F71EEB064E4CEB164C4FF00006D8
:1019D0001EEB074E4CEB174B18EB0B0840F10000C9
:1019E00018EB0E0B58EB000840F100008F1A4FF077
:1019F00000013CBFC943661B14BFB5EB040C0021BA
:101A00003CBFC943F61B4FEA17444EEA8E0E27EA45
:101A100004454FEA1C4704FB07622CEA074C05FB10
:101A200007F70CFB05F604FB0CFC16EB074642EB34
:101A3000174216EB0C4642EB1C421BEB060658EB1A
:101A40000202414146EA9E0601D5BDE80189B61968
:101A5000524141EB0101A3F10103BDE801894FEAC5
:101A600014454FEA114724EA054621EA074C05FBD5
:101A700007F406FB07F70CFB06F105FB0CFC11EB6A
:101A8000074144EB17444FEA124711EB0C4144EB7A
:101A90001C4422EA074C05FB07F206FB07F70CFB88
:101AA00006F605FB0CFC16EB074642EB174216EB5D
:101AB0000C4642EB1C456A1854F1000148BF7047C0
:101AC000B619524141EB0101A3F10103704795F0B2
:101AD000000F37D04FEA11424FEA144721EA02467D
:101AE00024EA074C02FB07F106FB07F70CFB06F4A0
:101AF00002FB0CFC14EB074441EB17414FEA15477E
:101B000014EB0C4441EB1C4125EA074C02FB07F5A2
:101B100006FB07F70CFB06F602FB0CFC16EB074670
:101B200045EB174516EB0C4645EB1C42121951F1DB
:101B3000000148BF7047B619524141EB0101A3F1C2
:101B4000010370474FEA14454FEA114724EA05465E
:101B500021EA074C05FB07F106FB07F70CFB06F231
:101B60004FF0000605FB0CFC12EB074241EB17415E
:101B700012EB0C4251EB1C4148BF7047921841EBED
:101B80000101A3F1010370471CB50121402003F0BE
:101B900039FC4FF40060009001208DF80400002013
:101BA0008DF8060003208DF8050002208DF807004F
:101BB0006946044802F048F94FF40061014802F018
:101BC000B7F91CBD0018024010B56E21014804F0A1
:101BD000C1FE10BDB31C000800BFFEE710B507230F
:101BE000022208214FF4A87003F0A2FF4FF44070C6
:101BF00003F0F0F8A82007F0C7F802F033FD02F078
:101C000049FF4FF4E13005F02FFA4FF4E13004F0D2
:101C100081FF4FF4E13005F04FF94FF4165005F015
:101C2000B3F94FF4E13005F085FA02F07DFB02F0E4
:101C30008BF902F07BF8FFF7A7FF03F029F902F018
:101C400043FF08F02DFD04F0F3F804F0F7FB9FEDDF
:101C5000080A08F0D9FA322009F0DAFD0021084616
:101C600003F0B9FB02F0B8FC07F0EAFE10BD00007B
:101C70000000044210B502F05FF909F0ABFE10BDA0
:101C800010B50246002002E0535C0344D8B20B1E9C
:101C9000A1F10101F8DC10BD10B51E21084603F0CA
:101CA000D5FE10BD10B56FF01B01084603F0CEFE47
:101CB00010BD10B56FF01D01084603F0C7FE10BD42
:101CC00070B50446B42C02D004F1B400A0B9B42C11
:101CD00005D15A20FFF7F4FFB220FFF7F1FF04F11E
:101CE000B400002833D16FF05900FFF7E9FF6FF01F
:101CF000B100FFF7E5FF2AE00125002C01DD641BA0
:101D000000E02C4403F05CFC06E003F059FC6FF0AB
:101D10002201232003F09AFE0D48B0F90000A042F2
:101D2000F3DC05E003F04CFC2321484203F08EFE77
:101D30000748B0F90000A042F4DB03F041FC0021A9
:101D4000084603F083FE322007F040F800BF70BD64
:101D50006E01002008B505A00068009004A0FEF701
:101D600055FB0121684600F035F908BD030000006D
:101D70000D0A73656E736F72206F6E2D2D0D0A0044
:101D800008B505A00068009004A0FEF73FFB012104
:101D9000684600F01FF908BD050000000D0A7A2D05
:101DA0006178657320746F207A65726F2D2D0D0A2E
:101DB000000000002DE9FE4F04460D4616461F4662
:101DC000DDE90DABDDF83090DDF84480154A07CA37
:101DD0008DE807008DF801408DF802508DF8036002
:101DE00009F00301384661F35F008DF804008DF8B7
:101DF00005A08DF806B00F988DF8070010988DF8A3
:101E0000080008F0FF008DF809004FEA18208DF84F
:101E10000A0005A0FEF7FAFA0B21684600F0DAF88E
:101E2000BDE8FE8F3CF800080D0A736574207061F0
:101E300072616D65746572732D2D0D0A00000000CE
:101E400008B505A00068009004A0FEF7DFFA0121A4
:101E5000684600F0BFF808BD190000000D0A617562
:101E6000746F207265706F7274206F6E2D2D0D0A65
:101E70000000000010B50446514800782044504945
:101E8000087050480078062871D2DFE800F0031887
:101E90002C415571492C11D100204B490870492122
:101EA000494802780078401C474B187047488154D5
:101EB0000020434908700120424908707DE04248F3
:101EC00001780078401C404A107040484454FF2C70
:101ED00003D100203B4908706FE03A480078401C6D
:101EE0003849087069E0384801780078401C364A63
:101EF000107036484454492C00DC1CB9002031498C
:101F000008705AE02F480078401C2E49087054E0B1
:101F10002D4801780078401C2B4A10702B484454FF
:101F20008078C01C11460978884204DC2548007876
:101F3000401C2449087040E021480078001B2049DB
:101F4000087008460078A0420DD11F48017800783B
:101F5000401C1D4A10701D4844541A480078401C0B
:101F60001849087002E000201649087025E020E0BA
:101F70000020144908704D2C1AD1134801780078BC
:101F8000401C114A10701148445440781049097897
:101F9000884203D00E480078FF2809D10A4800780B
:101FA000401FC1B20948C01C00F050F8012010BD0C
:101FB00003E000200349087000BF00BF0020F6E7DF
:101FC000790100207B0100207A010020F009002027
:101FD0007001002030B597B005460C4622210EA8AE
:101FE000FEF7DFFC3422174901A8FEF7A0FC14B16C
:101FF0001F2C00DC1DB94FF0FF3017B030BD492059
:102000008DF83600104800788DF837008DF838408C
:10201000224629460DF1390002F090FEA11C0DF177
:102020003700FFF72DFE04F1350101AA50544D2170
:1020300004F136001154411C01A801F03DFD0020BF
:10204000DBE7000008F800087001002003B58FB03E
:102050000F980078801E502881F01C84DFE810F073
:10206000500055005D006100650069006D001A0CAC
:102070001A0C1A0C1A0C1A0C1A0C1A0C71001701F3
:1020800009090D091109150919091D0954095809EA
:102090001A0C1A0C1A0C1A0C1A0C1A0C5C0960098E
:1020A000730977097D0981091A0C9E091A0C1A0C0B
:1020B000A209A609AA09A40BAF0BB30BBB0BBF0B5C
:1020C0005900C70BCB0BD70BDB0BE30BE70B1A0C41
:1020D0001A0C1A0C1A0C1A0C1A0C1A0C1A0C1A0CD0
:1020E000EF0BF30BF70B1A0C1A0CFF0B030C1A0C6B
:1020F0001A0C1A0C1A0C1A0C1A0C1A0C0B0C160CC3
:10210000BCA0FEF783F901F0C6BBC0A0FEF77EF9C4
:10211000F9E7C4A0FEF77AF9F5E7C9A0FEF776F96A
:10212000F1E7CEA0FEF772F9EDE7D3A0FEF76EF966
:10213000E9E7DAA0FEF76AF9E5E7E6A0FEF766F957
:10214000E1E70F98407801460590ECA0FEF75EF9B4
:102150000F98807801460590EDA0FEF757F90F988B
:10216000C07801460590F0A0FEF750F90F9800796D
:1021700000F0010008B1F2A000E0F2A001460590D5
:10218000F1A0FEF743F90F980079C0F34100014632
:102190000590F1A0FEF73AF90F980079C0F3C0005E
:1021A00008B1E7A000E0E7A001460590F1A0FEF726
:1021B0002DF90F980079C0F3001008B1E0A000E0FD
:1021C000E0A001460590EEA0FEF720F90F984079B7
:1021D00001460590EFA0FEF719F90F9880790146A6
:1021E0000590EFA0FEF712F90F98C079014605900F
:1021F000F0A0FEF70BF90F98007A01460590F2A0C7
:10220000FEF704F90F98417A807A41EA00200146EE
:102210000590F3A0FEF7FAF80F98C07A01460590F2
:10222000F6A0FEF7F3F80F98007B01460590F9A0A1
:10223000FEF7ECF80F98417B807B41EA00200146D5
:102240000590FAA0FEF7E2F80F98007D0F99C97C7F
:102250000F9A927CCDE9002102900F98407C059066
:102260000F98007C04900F98C07B03900146F6A065
:10227000DDE90423FEF7CAF80F991531FCA0FEF73B
:10228000C5F80F991B31FEA0FEF7C0F83BE70F9889
:102290004178807841EA00200E9007200D900E983A
:1022A00000F0010000287DD00D990F98425C014696
:1022B0000D98401C085C42EA002000B200EE100AB3
:1022C000B8EEC00ADFEDF40A20EE200A8DED090A0F
:1022D0000D98801CC0B20D9009980AF03BFDCDE925
:1022E00004019DED040B53EC102BECA0FEF78EF8CF
:1022F0000D990F98425C01460D98401C085C42EA1B
:10230000002000B200EE100AB8EEC00ADFEDE20ACB
:1023100020EE200A8DED080A0D98801CC0B20D90A9
:1023200008980AF017FDCDE904019DED040B53EC6C
:10233000102BDDA0FEF76AF80D990F98425C01465C
:102340000D98401C085C42EA002000B200EE100A22
:10235000B8EEC00ADFEDD00A20EE200A8DED070AA4
:102360000D98801CC0B20D9007980AF0F3FCCDE9DF
:1023700004019DED040B53EC102BCEA0FEF746F8A4
:102380009DED090A60EE000A9DED080A40EE000A84
:102390009DED070A40EE000ACDED010A01980AF012
:1023A000D9FC00E01AE0CDE902019DED020B05F039
:1023B000CBFB8DED040B9DED040B51EC100B09F0E4
:1023C00095FE069006980AF0C5FCCDE904019DED46
:1023D000040B53EC102BBAA0FEF718F80E9800F07F
:1023E0000200002804D00D990F98425C01466FE16D
:1023F00002E20000092073656E736F72206F6666DB
:1024000020737563636573730D0A0000092073659B
:102410006E736F72206F6E20737563636573730DD7
:102420000A0000000920636F6D706173732063619F
:102430006C69627261746520626567696E0D0A007D
:102440000920636F6D706173732063616C696272E0
:1024500061746520656E640D0A00000009207A2D04
:102460006178657320746F207A65726F207375636D
:10247000636573730D0A00000920576F726C64580E
:10248000595A2D6178657320746F207A65726F20B8
:10249000737563636573730D0A000000092061633F
:1024A00063656C65726174696F6E2063616C6962EB
:1024B000726174696F6E2C20486F6C64207374694C
:1024C0006C6C20666F722039207365636F6E647365
:1024D0000D0A00000920617865735A20576F726CED
:1024E0006458595A2D6178657320746F207A65722B
:1024F0006F20737563636573730D0A00092073742D
:10250000696C6C206C696D69743A2025750D0A0040
:1025100009207374696C6C20746F207A65726F3A4D
:102520002025750D0A00000009206D6F7665207466
:102530006F207A65726F3A2025750D0A0000000041
:102540006F6E00006F6666000920636F6D706173C7
:10255000733A2025730D0A0009206261726F6D6560
:102560007465722066696C7465723A2025750D0A6F
:10257000000000000920494D553A2025730D0A003E
:1025800009206175746F207265706F72743A20252E
:10259000730D0A0009204650533A2025750D0A0094
:1025A00009206779726F2066696C7465723A20251C
:1025B000750D0A0009206163632066696C74657299
:1025C0003A2025750D0A00000920636F6D70617354
:1025D000732066696C7465723A2025750D0A0000D7
:1025E0000920737562736372696265207461673A6A
:1025F000203078253034580D0A0000000920636827
:1026000061726765642073746174653A2025750D85
:102610000A000000092062617474657279206C659B
:1026200076656C3A20257525250D0A000920626122
:10263000747465727920766F6C746167653A2025D1
:1026400075206D760D0A000009204D61633A202542
:102650003032583A253032583A253032583A2530FF
:1026600032583A253032583A253032580D0A000097
:10267000092076657273696F6E3A2025730D0A0022
:10268000092070726F64756374206D6F64656C3AB5
:102690002025730D0A000000CDCC9C3B0961583AFF
:1026A00020252E33660D0A000961593A20252E3364
:1026B000660D0A0009615A3A20252E33660D0A007C
:1026C00009615F6162733A20252E33660D0A0000AE
:1026D0000D98401C085C42EA002000B200EE100A8F
:1026E000B8EEC00A5FED140A20EE200A8DED090A4B
:1026F0000D98801CC0B20D9009980AF02BFBCDE913
:1027000004019DED040B53EC102BFBA0FDF77EFEA6
:102710000D990F98425C01460D98401C085C42EAF6
:10272000002000B200EE100AF8EEC00A1FED260AE3
:1027300020EE800A8DED080A0D98801CC0B20D9025
:1027400008980AF007FBCDE904019DED040B53EC5A
:10275000102BECA0FDF75AFE0D990F98425C014634
:102760000D98401C085C42EA002000B200EE100AFE
:10277000B8EEC00A5FED380A20EE200A8DED070A98
:102780000D98801CC0B20D9007980AF0E3FACDE9CD
:1027900004019DED040B53EC102BDDA0FDF736FE7C
:1027A0009DED090A20EE000ADDED080A00EEA00A00
:1027B000DDED070A00EEA00A8DED010A01980AF08E
:1027C000C9FACDE902019DED020B05F0BDF98DEDD1
:1027D000040B9DED040B51EC100B09F087FC0690E7
:1027E00006980AF0B7FACDE904019DED040B53EC0D
:1027F000102BCAA0FDF70AFE0E9800F00400002876
:102800007DD00D990F98425C01460D98401C085CE4
:1028100042EA002000B200EE100AB8EEC00ADFED76
:10282000C30A20EE200A8DED090A0D98801CC0B263
:102830000D9009980AF08EFACDE904019DED040B84
:1028400053EC102BBAA0FDF7E1FD0D990F98425CF7
:1028500001460D98401C085C42EA002000B200EEE0
:10286000100AB8EEC00ADFEDB10A20EE200A8DEDA5
:10287000080A0D98801CC0B20D9008980AF06AFAF8
:10288000CDE904019DED040B53EC102BABA0FDF73B
:10289000BDFD0D990F98425C01460D98401C085CE7
:1028A00042EA002000B200EE100AB8EEC00ADFEDE6
:1028B0009F0A20EE200A8DED070A0D98801CC0B2F9
:1028C0000D9007980AF046FACDE904019DED040B3E
:1028D00053EC102B9CA0FDF799FD9DED090A20EE0D
:1028E000000ADDED080A00EEA00ADDED070A00EEA1
:1028F000A00A8DED010A01980AF02CFA00E01AE016
:10290000CDE902019DED020B05F01EF98DED040BE2
:102910009DED040B51EC100B09F0E8FB06900698B6
:102920000AF018FACDE904019DED040B53EC102BCD
:1029300088A0FDF76BFD0E9800F0080000287DD000
:102940000D990F98425C01460D98401C085C42EAC4
:10295000002000B200EE100AB8EEC00ADFED810AD6
:1029600020EE200A8DED090A0D98801CC0B20D9052
:1029700009980AF0EFF9CDE904019DED040B53EC41
:10298000102B79A0FDF742FD0D990F98425C01468E
:102990000D98401C085C42EA002000B200EE100ACC
:1029A000B8EEC00ADFED6F0A20EE200A8DED080AAE
:1029B0000D98801CC0B20D9008980AF0CBF9CDE9B3
:1029C00004019DED040B53EC102B6AA0FDF71EFDD6
:1029D0000D990F98425C01460D98401C085C42EA34
:1029E000002000B200EE100AB8EEC00ADFED5D0A6A
:1029F00020EE200A8DED070A0D98801CC0B20D90C4
:102A000007980AF0A7F9CDE904019DED040B53ECFA
:102A1000102B5BA0FDF7FAFC9DED090A20EE000AE1
:102A2000DDED080A00EEA00ADDED070A00EEA00ABF
:102A30008DED010A01980AF08DF900E01AE0CDE968
:102A400002019DED020B05F07FF88DED040B9DED6D
:102A5000040B51EC100B09F049FB069006980AF0A4
:102A600079F9CDE904019DED040B53EC102B47A03F
:102A7000FDF7CCFC0E9800F0100000283BD00D991B
:102A80000F98425C01460D98401C085C42EA002009
:102A900000B200EE100AB8EEC00ADFED400A20EEE8
:102AA000200A8DED090A0D98801CC0B20D9009987E
:102AB0000AF050F9CDE904019DED040B53EC102B05
:102AC00037A0FDF7A3FC0D98801C0F99085C020449
:102AD0000D98401C085C42EA00200D9A895C08436E
:102AE0000A900A9800F40000B0F5000F64D10A982B
:102AF00040F07F4061E0AFE00941583A20252E3395
:102B0000660D0A000941593A20252E33660D0A0048
:102B100009415A3A20252E33660D0A0009415F61AA
:102B200062733A20252E33660D0A000000007A3DBC
:102B30000947583A20252E33660D0A000947593AAD
:102B400020252E33660D0A0009475A3A20252E33D8
:102B5000660D0A0009475F6162733A20252E3366CD
:102B60000D0A000000B01A3E0943583A20252E33C2
:102B7000660D0A000943593A20252E33660D0A00D6
:102B800009435A3A20252E33660D0A0009435F6136
:102B900062733A20252E33660D0A00000AD7233CC3
:102BA0000974656D70657261747572653A20252EC1
:102BB00032660D0A000000000A980A909DED0A0A8C
:102BC000B8EEC00ADFEDFC0A20EE200A8DED080AFF
:102BD0000D98C01CC0B20D9008980AF0BBF8CDE962
:102BE00004019DED040B53EC102BF4A0FDF70EFC3B
:102BF0000D98801C0F99085C02040D98401C085C1D
:102C000042EA00200D9A895C08430A900A9800F471
:102C10000000B0F5000F03D10A9840F07F4000E0BB
:102C20000A980A909DED0A0AB8EEC00ADFEDE90A9B
:102C300020EE200A8DED070A0D98C01CC0B20D9041
:102C400007980AF087F8CDE904019DED040B53ECD9
:102C5000102BE1A0FDF7DAFB0E9800F02000002811
:102C60007ED00D990F98425C01460D98401C085C7F
:102C700042EA002000B200EE100AB8EEC00ADFED12
:102C8000DA0A20EE200A8DED060A0D98801CC0B2EB
:102C90000D9006980AF05EF8CDE904019DED040B55
:102CA00053EC102BD1A0FDF7B1FB0D990F98425CAE
:102CB00001460D98401C085C42EA002000B200EE7C
:102CC000100AF8EEC00A9FEDC80A20EE800A8DEDCA
:102CD000090A0D98801CC0B20D9009980AF03AF8C4
:102CE000CDE904019DED040B53EC102BC2A0FDF7C0
:102CF0008DFB0D990F98425C01460D98401C085CB5
:102D000042EA002000B200EE100AB8EEC00ADFED81
:102D1000B60A20EE200A8DED080A0D98801CC0B27C
:102D20000D9008980AF016F8CDE904019DED040B0A
:102D300053EC102BB3A0FDF769FB0D990F98425C83
:102D400001460D98401C085C42EA002000B200EEEB
:102D5000100AB8EEC00ADFEDA40A20EE200A00E057
:102D600011E08DED070A0D98801CC0B20D900798F8
:102D700009F0F0FFCDE904019DED040B53EC102B9D
:102D8000A3A0FDF743FB0E9800F04000F0B30D99AF
:102D90000F98425C01460D98401C085C42EA0020F6
:102DA00000B200EE100AB8EEC00ADFED9C0A20EE79
:102DB000200A8DED090A0D98801CC0B20D900D9966
:102DC0000F98425C01460D98401C085C42EA0020C6
:102DD00000B200EE100AB8EEC00ADFED900A20EE55
:102DE000200A8DED080A0D98801CC0B20D900D9937
:102DF0000F98425C01460D98401C085C42EA002096
:102E000000B200EE100AB8EEC00A00E01AE0DFEDF2
:102E1000830A20EE200A8DED070A0D98801CC0B2AF
:102E20000D90079809F096FFCDE904019DED040B84
:102E300053EC102B7AA0FDF7E9FA9DED070A7C48C8
:102E400080ED000A0E9800F0800000286BD00D99EC
:102E50000F98425C01460D98401C085C42EA002035
:102E600000B200EE100AB8EEC00ADFED720A80EE82
:102E7000201A8DED091A0D98801CC0B20D9009988A
:102E800009F068FFCDE904019DED040B53EC102B14
:102E900069A0FDF7BBFA0D990F98425C01460D98A9
:102EA000401C085C42EA002000B200EE100AB8EEB6
:102EB000C00ADFED600A80EE201A8DED081A0D9829
:102EC000801CC0B20D90089809F044FFCDE90401C0
:102ED0009DED040B53EC102B5CA0FDF797FA0D99B8
:102EE0000F98425C01460D98401C085C42EA0020A5
:102EF00000B200EE100AB8EEC00ADFED4E0A80EE16
:102F0000201A8DED071A0D98801CC0B20D900798FD
:102F100009F020FFCDE904019DED040B53EC102BCB
:102F20004FA0FDF773FA0E9800F48070002842D08D
:102F30000D98C01C0F99085C02060D98801C085C57
:102F400042EA00420D98401C085C42EA00210D9ABA
:102F50000F98805C01430A910D98001DC0B20D903E
:102F600044A00A99FDF752FA0D990F98405C0C9015
:102F70000D98401CC0B20D900C9800F0010008B1F3
:102F800040A000E040A00146059040A0FDF73EFAB9
:102F90000C9800F0020008B13AA000E03AA0014607
:102FA00005903EA0FDF732FA0C9800F0040008B13D
:102FB00034A07DE07AE08EE000007A390961697220
:102FC00050726573737572653A20252E33660D0A4B
:102FD0000000000000A08C3A096865696768743ACF
:102FE00020252E33660D0A000000003809773A20AC
:102FF000252E33660D0A000009783A20252E336607
:103000000D0A000009793A20252E33660D0A0000CA
:10301000097A3A20252E33660D0A00000000B43BE1
:1030200009616E676C655A3A20252E33660D0A00D9
:103030007401002000007A44096F66667365745855
:103040003A20252E33660D0A00000000096F6666DF
:10305000736574593A20252E33660D0A000000006E
:10306000096F66667365745A3A20252E33660D0A19
:10307000000000000973746570733A2025750D0A0D
:1030800000000000796573006E6F00000920776111
:103090006C6B696E673A2025730D0A000920727502
:1030A0006E6E696E673A2025730D0A00AFF2280034
:1030B00001460590C0A0FDF7A9F90C9800F00800A2
:1030C00010B1AFF2400001E0AFF2440001460590BC
:1030D000BDA0FDF79BF90E9800F4007000287DD08C
:1030E0000D990F98425C01460D98401C085C42EA1D
:1030F000002000B200EE100AB8EEC00ADFEDB60AFA
:1031000020EE200A8DED090A0D98801CC0B20D90AA
:10311000099809F01FFECDE904019DED040B53EC65
:10312000102BAEA0FDF772F90D990F98425C014685
:103130000D98401C085C42EA002000B200EE100A24
:10314000B8EEC00ADFEDA40A20EE200A8DED080AD1
:103150000D98801CC0B20D90089809F0FBFDCDE9D8
:1031600004019DED040B53EC102BA0A0FDF74EF9CC
:103170000D990F98425C01460D98401C085C42EA8C
:10318000002000B200EE100AB8EEC00ADFED920A8D
:1031900020EE200A8DED070A0D98801CC0B20D901C
:1031A000079809F0D7FDCDE904019DED040B53EC20
:1031B000102B92A0FDF72AF99DED090A20EE000AD6
:1031C000DDED080A00EEA00ADDED070A00EEA00A18
:1031D0008DED010A019809F0BDFD00E01AE0CDE98E
:1031E00002019DED020B04F0AFFC8DED040B9DED93
:1031F000040B51EC100B08F079FF0690069809F0CB
:10320000A9FDCDE904019DED040B53EC102B7FA02B
:10321000FDF7FCF80E9800F4806088B10D990F98C6
:10322000425C01460D98401C085C42EA00200B906D
:103230000D98801CC0B20D9078A00B99FDF7E6F8B0
:103240000E9800F4006098B10D990F98405C0C90B6
:103250000D98401CC0B20D900C9800F00F00059026
:103260000C980009049001466FA0059AFDF7CEF86E
:1032700011E373A0FDF7CAF80DE378A0FDF7C6F8D7
:1032800009E37EA0FDF7C2F805E38CA0FDF7BEF8C8
:1032900001E398A0FDF7BAF8FDE20F984078FF2807
:1032A00003D19AA0FDF7B2F82DE00F984078FE28E0
:1032B00003D1A2A0FDF7AAF825E00F984078FD28D9
:1032C00003D1A7A0FDF7A2F81DE00F984078FC28D5
:1032D00003D1AEA0FDF79AF815E00F984078FB28CF
:1032E00003D1B3A0FDF792F80DE00F98407838B104
:1032F0000F98407801460590B7A0FDF787F802E0E7
:10330000BFA0FDF783F8C6E2C4A0FDF77FF8C2E2D4
:10331000C7A0FDF77BF8BEE2CAA0FDF777F8BAE2D6
:10332000092000900F9B5B1CCEA2D0A1D0A000F082
:10333000F5FB092000900F9B0A33CAA2CBA1CCA0B9
:1033400000F0ECFBA7E2D1A0FDF760F8A3E20F9933
:10335000491CD5A0FDF75AF89DE2D9A0FDF756F813
:1033600099E20F98407801460590E3A0FDF74EF8EA
:103370000F98807801460590E7A0FDF747F80F9871
:10338000C07801460590EAA0FDF740F80F98007953
:1033900001460590EDA0FDF739F87CE2F1A0FDF7BC
:1033A00035F878E2F5A0FDF731F874E2F7A0FDF703
:1033B0002DF870E2F4E10000092062696B696E6724
:1033C0003A2025730D0A0000092064726976696E3F
:1033D000673A2025730D0A00CDCC9C3B09617358D8
:1033E0003A20252E33660D0A00000000096173594A
:1033F0003A20252E33660D0A000000000961735A39
:103400003A20252E33660D0A000000000961735F23
:103410006162733A20252E33660D0A0009616463E8
:103420003A2025750D0A000009204750494F3120E8
:10343000204D3A25582C204E3A25580D0A00000000
:10344000092073657420706172616D6574657273B3
:1034500020737563636573730D0A00000920636C44
:1034600065617220494E5320706F736974696F6E85
:1034700020737563636573730D0A0000092052653C
:1034800073746F72652063616C6962726174696FD5
:103490006E20706172616D65746572732066726F03
:1034A0006D20666163746F7279206D6F646520733F
:1034B0007563636573730D0A000000000920536192
:1034C00076652063616C6962726174696F6E2070E9
:1034D0006172616D657465727320746F20666163DB
:1034E000746F7279206D6F646520737563636573A3
:1034F000730D0A000920636C656172207374657036
:103500007320737563636573730D0A00092063612B
:103510006C6962726174696F6E2073756363657341
:10352000732C20706C65617365207761697420313C
:1035300030207365636F6E64730D0A000920636148
:103540006C6962726174696F6E206661696C2C20AF
:103550006779726F206572726F720D0A0000000049
:10356000092063616C6962726174696F6E206661C3
:10357000696C2C20616363656C65726F6D65746541
:1035800072206572726F720D0A000000092063617B
:103590006C6962726174696F6E206661696C2C205F
:1035A000636F6D70617373206572726F720D0A00C4
:1035B000092063616C6962726174696F6E20666173
:1035C000696C2C204861736E277420737461727467
:1035D00065640D0A00000000092063616C69627275
:1035E0006174696F6E2C20506F696E747320636F05
:1035F0006C6C65637465642069732025750D0A0021
:10360000092063616C6962726174696F6E2069730D
:103610002072756E6E696E670D0A00000920617573
:10362000746F207265706F7274206F66660D0A0089
:1036300009206175746F207265706F7274206F6EEF
:103640000D0A00000920736574205043422064690C
:1036500072656374696F6E20737563636573730D50
:103660000A00000025303278200000005D0D0A00BD
:103670000920676574205043422064697265637451
:10368000696F6E3A2030785B000000000920736596
:103690007420424C45206E616D65207375636365CF
:1036A00073730D0A00000000092067657420424C06
:1036B00045206E616D653A2025730D0A00000000FB
:1036C000092073657420506F776572446F776E566A
:1036D0006F6C7461676520616E64206368617267F6
:1036E0006520706172616D657465727320737563B6
:1036F000636573730D0A00000920506F776572448B
:103700006F776E566F6C74616765466C61673A20BF
:1037100025750D0A00000000092063686172676565
:103720005F66756C6C5F6D563A2025750D0A00005A
:1037300009206368617267655F66756C6C5F6D41D7
:103740003A202575206D610D0A000000092063688C
:10375000617267655F6D413A202575206D610D0AC4
:10376000000000000920736574206770696F207382
:103770007563636573730D0A0000000009207769A3
:103780006C6C2072657365740D0A000009207769FE
:103790006C6C20706F776572206F66660D0A000092
:1037A0003EA0FCF733FE76E00F98407800EB8000F7
:1037B00040000146059042A0FCF728FE6BE049A0BE
:1037C000FCF724FE67E00F9840780146059052A070
:1037D000FCF71CFE5FE05BA0FCF718FE5BE00F98B7
:1037E0004078014605905DA0FCF710FE53E05FA015
:1037F000FCF70CFE4FE00F98807805900F9840780A
:103800000490014664A0059AFCF700FE43E06AA01C
:10381000FCF7FCFD3FE00F984078014605906EA054
:10382000FCF7F4FD37E071A0FCF7F0FD33E00F98F2
:1038300040780146059073A0FCF7E8FD2BE075A0E9
:10384000FCF7E4FD27E079A0FCF7E0FD23E00F980A
:103850004078014605907DA0FCF7D8FD1BE081A0D3
:10386000FCF7D4FD17E00F9840780146059084A03E
:10387000FCF7CCFD0FE01098401E00900F9B5B1CE6
:1038800083A20EA184A000F049F904E084A0FCF713
:10389000BDFD00E000BF00BF11B000BD0920736591
:1038A000742069646C65546F506F7765724F6666FB
:1038B00054696D6520737563636573730D0A000049
:1038C000092069646C65546F506F7765724F666646
:1038D00054696D653A2575206D696E757465730D53
:1038E0000A000000092073657420466C6167466F0A
:1038F0007244697361626C65426C655365744E61B4
:103900006D65416E644361687267652073756363BA
:103910006573730D0A0000000920466C6167466FED
:103920007244697361626C65426C655365744E6183
:103930006D65416E644361687267653A25750D0A6D
:10394000000000000920736574206164647265736F
:103950007320737563636573730D0A0009206164D6
:1039600064726573733A25750D0A0000092073654A
:103970007420616363656C52616E676520616E647B
:10398000206779726F52616E676520737563636536
:1039900073730D0A000000000920616363656C52B7
:1039A000616E67653A2575206779726F52616E673F
:1039B000653A25750D0A0000092073657420477962
:1039C000726F4175746F466C6167207375636365D0
:1039D00073730D0A0000000009204779726F41756A
:1039E000746F466C61673A25750D0A00092073658E
:1039F000742045636F54696D6520737563636573E7
:103A0000730D0A00092045636F54696D653A257589
:103A10000D0A0000092073657420486569676874A1
:103A200020737563636573730D0A00000920736565
:103A300074204865696768744175746F466C616786
:103A400020737563636573730D0A00000920486570
:103A5000696768744175746F466C61673A25750DC6
:103A60000A00000009207365742042617564526188
:103A7000746520737563636573730D0A000000003D
:103A8000092042617564526174653A25750D0A001A
:103A900025303258200000004454553A20000000E0
:103AA0000920736574204379636C652073756363C3
:103AB0006573730D0A00000038B504460D462946AB
:103AC000204603F08FF8234603A205A105A0009528
:103AD00000F024F838BD00002530325820000000E6
:103AE0000D0A000074783A200000000007480068C2
:103AF000000C0749087005480088000A054908704D
:103B0000024800780449087070470000A4000020B3
:103B1000AA000020AB000020AC0000202DE9F047F7
:103B200005460E4617469846DDF820901DB12946F9
:103B300009A0FCF76BFC002405E018F804103846D7
:103B4000FCF764FC641C4C45F7D31EB1314602A05F
:103B5000FCF75CFCBDE8F0872573000070470000AF
:103B600008B5FFF7C3FF03235E48027802215E48D1
:103B700001F0CCFB03235D48027802215C4801F090
:103B8000C5FB03235B48027802215B4801F0BEFBC2
:103B900001201023544A00210090084601F056FBF2
:103BA00001201023524A50210090002001F04EFBCA
:103BB00001201023504A28210090002001F046FBEC
:103BC00048480078C82811DD4848007849490978F4
:103BD000084444490978884208DA01201023002269
:103BE00050210090084601F0AFFA7AE03F48007893
:103BF0004000404909783B4A1278022313FB021126
:103C000088420CDD39480078962808DD0120102311
:103C1000024650210090084601F096FA61E03548CE
:103C20000078A02816DD31480078E62812DA3148FD
:103C3000007840002B4909782C4A127811448842B8
:103C400008DD01201023022250210090084601F0D7
:103C50007BFA46E02548007822490978401A1E2858
:103C600020DD224800781F490978401A3C2819DADB
:103C70001C480078782815DD1C480078962811DD4E
:103C8000184800781B49097808441849097888427F
:103C900008DD01201023042250210090084601F085
:103CA00053FA1EE00F480078C82812DD0F4800784C
:103CB000C8280EDD0D4800780A490978884208DDD9
:103CC00001201023032250210090084601F03CFA05
:103CD00007E001201023052250210090084601F042
:103CE00033FA08BDAA00002074000020AB000020B9
:103CF0007C000020AC0000208400002010B51420BF
:103D000005F0A8F8102000F041F8012805D1054879
:103D10000068C0430449C1F8AC02102000F030F83C
:103D200010BD0000AC024342000043420EB500F05B
:103D30006FFC0121880301F085FB0321012001F0C4
:103D40001FFC1020009000208DF804000C208DF83E
:103D5000050001208DF80600684600F023F80A20CF
:103D60008DF8080001208DF8090003208DF80A0065
:103D700001208DF80B0002A800F0F0FF0EBD00003E
:103D80000149086070470000143C014001460020D2
:103D9000034A12680A400AB1012000E0002070477F
:103DA000143C0140002123498279002A3AD00A4676
:103DB000126803689A430B461A600A1D126803686A
:103DC0009A430B1D1A60027911440A6803681A436A
:103DD0000A60184A0832126803689A43154B083380
:103DE0001A601A1D126803689A43124B0C331A604A
:103DF0004279102A0ED11A1F126803681A430D4B1C
:103E000008331A601A1D126803681A43094B0C33F1
:103E10001A600DE00749427911440A6803681A43A1
:103E20000A6005E0027911440A6803689A430A604F
:103E300070470000003C014010B56E21014802F0BF
:103E400089FD10BD991C0008F0B50A460021002329
:103E5000002400BF3DE0012505FA01F3156805EADD
:103E600003049C4234D105684F000326BE40B5438D
:103E7000056015794E00B540066835430560157933
:103E8000012D02D01579022D16D185684F00032629
:103E9000BE40B543856055794E00B54086683543D0
:103EA0008560456801268E40B54345604568967932
:103EB0008E40B6B235434560C5684F000326BE400C
:103EC000B543C560D5794E00B540C6683543C56079
:103ED000491C1029BFD3F0BDF0B5002300244D07C5
:103EE000ED0E02FA05F3CE1000F1200555F826502C
:103EF0004E07F70E0F26BE40B543CF1000F1200647
:103F000046F82750CE1000F1200555F8265045EA16
:103F10000304CE1000F1200545F82640F0BD02460E
:103F2000002013690B400BB1012000E00020704716
:103F3000418370470183704710B50821014800F0A4
:103F400051FD10BD7556000810B500F005F805F0DC
:103F5000C9FD05F0E1FD10BD1CB50121042001F0F3
:103F600051FA0F20009000208DF804008DF8060013
:103F700003208DF8050001208DF8070069462248CE
:103F8000FFF762FF0121202001F03CFA4FF40060AE
:103F9000009000208DF804008DF8060003208DF8B5
:103FA000050001208DF8070069461848FFF74CFF0F
:103FB0000121022001F026FA0220009000208DF855
:103FC00004008DF8060003208DF8050001208DF80F
:103FD000070069460E48FFF737FF0121084601F048
:103FE00011FA3020009000208DF804008DF80600B2
:103FF00003208DF8050001208DF80700694605486B
:10400000FFF722FF1CBD0000000802400014024020
:10401000000402400000024000BFFEE710B500208F
:104020000F4908600F48006820F440000D490860FF
:104030000846006840F48000086000200A49C1F882
:10404000AC02022004F0E2FE0120054908600220D3
:1040500004F0DCFE00200449C1F8A80210BD0000F5
:10406000A882404200040240008040421CB5012169
:10407000022001F0C7F94FF44060009001208DF854
:10408000040000208DF8060003208DF805000120B3
:104090008DF8070069460548FFF7D6FE0120044960
:1040A00008600449C1F8AC021CBD000000040240D5
:1040B000A88240420080404210B500200F490860AD
:1040C0000F48006820F440000D4908600846006869
:1040D00040F48000086001200A49C1F8AC020220C7
:1040E00004F094FE012005490860022004F08EFED1
:1040F00000200449C1F8A80210BD0000A882404277
:10410000000402400080404270B505460024164875
:10411000006820F440001449086008460068086000
:10412000002616E0002011490860022004F06EFE0F
:1041300001200F49C1F8A8026006040E0B487C3824
:10414000006808B1601CC4B2012004F05FFE701C5E
:10415000C6B2082EE6DB15B9FFF7AEFF01E0FFF7A8
:104160005DFF204670BD000000040240A88240426E
:104170000080404270B504461548006820F44000B5
:10418000134908600846006840F480000860002079
:1041900010490860002517E0E0090E49091D086074
:1041A0006006040E022004F031FE01200A49C1F825
:1041B000A802022004F02AFE00200649086002201E
:1041C00004F024FE681CC5B2082DE5DB70BD0000BC
:1041D00000040240A88240420080404210B50F48CF
:1041E000006820F440000D4908600846006840F46B
:1041F0008000086001200A4908600A49C1F8A80245
:10420000042004F003FE002005490860042004F0A7
:10421000FDFD00200349C1F8A80210BD00040240C2
:10422000AC8240420080404210B50F48006820F444
:1042300040000D4908600846006840F480000860AE
:1042400000200A4908600A49C1F8AC02042004F0C1
:10425000DDFD0120054908600549C1F8AC020420D4
:1042600004F0D4FD10BD000000040240A8824042CA
:104270000080404210B500241348006820F440003C
:104280001149086008460068086001200F4908606D
:1042900004F0BCFD01200E49C1F8A80204F0B6FDEF
:1042A00007E0601CC4B2FA2C03DDFFF7BDFF01205C
:1042B00010BD0648803800680028F2D10349091F64
:1042C000086000BFF4E7000000040240AC824042F6
:1042D0000080404210B500200F4908600F48006878
:1042E00020F440200D4908600846006840F4802012
:1042F000086000200A49C1F8A402022004F086FDEB
:10430000012005490860022004F080FD00200549D5
:10431000C1F8A00210BD0000A00240420008024007
:1043200000004142000040421CB50121084601F056
:1043300069F80121042001F065F8042208211A48D7
:10434000FFF7CAFD042209211848FFF7C5FD4FF405
:104350008070009001208DF8040000208DF8060088
:1043600003208DF8050001208DF8070069460E48EE
:10437000FFF76AFD4FF40070009001208DF80400F3
:1043800000208DF8060003208DF8050001208DF82F
:10439000070069460548FFF757FD012004490860FA
:1043A0000449C1F8A4021CBD0000024000080240FC
:1043B000A00240420000414210B500200F490860B1
:1043C0000F48006820F440200D4908600846006846
:1043D00040F48020086001200A49C1F8A4020220AC
:1043E00004F014FD012005490860022004F00EFDD0
:1043F00000200549C1F8A00210BD0000A002404203
:1044000000080240000041420000404270B50546ED
:1044100000241548006820F440201349086008462D
:1044200000680860002615E000201049086002209E
:1044300004F0ECFC01200E49C1F8A0026006040E55
:104440000C48006808B1601CC4B2012004F0DEFC16
:10445000701CC6B2082EE7DB15B9FFF7ADFF01E00F
:10446000FFF738FF204670BD00080240A00240421E
:10447000000040422402414270B5044614480068DE
:1044800020F44020124908600846006840F480206B
:10449000086000200F490860002516E0E0090E4979
:1044A00008606006040E022004F0B0FC01200B49F5
:1044B000C1F8A002022004F0A9FC00200549086010
:1044C000022004F0A3FC681CC5B2082DE6DB70BD19
:1044D00000080240A0024042A402414200004042C3
:1044E00010B50F48006820F440200D4908600846C8
:1044F000006840F48020086001200A4908600A49E9
:10450000C1F8A002042004F081FC002005490860E5
:10451000042004F07BFC00200349C1F8A00210BD78
:1045200000080240A40241420000404210B50F487A
:10453000006820F440200D4908600846006840F4F7
:104540008020086000200A4908600A49C1F8A402D6
:10455000042004F05BFC0120054908600549C1F80E
:10456000A402042004F052FC10BD00000008024028
:10457000A00240420000414210B5002412480068E9
:1045800020F44020104908600846006808600120B7
:104590000E49086004F03AFC01200D49C1F8A00260
:1045A00004F034FC07E0601CC4B2FA2C03DDFFF712
:1045B000BDFF012010BD0548803800680028F2D1F9
:1045C0000449086000BFF5E700080240A402414228
:1045D00000004042A002404200B587B0FDF7BAFBA0
:1045E000FDF7CEFB4020052102220123CDE9023256
:1045F000CDE90410322000210A46CDE90010FF2148
:104600000520FDF7D7FBFDF71BFC07B000BD000040
:104610001CB50121422000F0F5FE4FF4244000902B
:1046200000208DF8040003208DF8050001208DF88E
:10463000070069460948FFF707FC082000900020A2
:104640008DF8040003208DF8050001208DF8070087
:1046500069460348FFF7F8FB1CBD00000018024044
:10466000000402401CB50121102000F0CBFE1820F0
:10467000009001208DF8040000208DF80600032032
:104680008DF8050001208DF8070069460348FFF703
:10469000DBFB18210148FFF74DFC1CBD0010024058
:1046A00010B5B948006801281BD1B748001F006841
:1046B000012816D1B4480838006890B9B2480C38BF
:1046C000006870B9B04814380068012809D1AE48B4
:1046D00018380068012804D11221084601F0B6F903
:1046E00051E1A9481838006801281ED1A64814389D
:1046F0000068012819D1A4480C380068A8B9A2485C
:1047000008380068012810D19F48001F0068012860
:104710000BD19D480068012807D11C21082001F019
:1047200095F9052004F052FB2DE1974818380068F0
:1047300001281AD1944814380068B0B992480C384E
:10474000006890B990480838006801280DD18E485B
:10475000001F0068012808D18B480068012804D197
:104760002021042001F072F90DE187481838006813
:1047700001281BD1844814380068B8B982480C3825
:104780000068012812D180480838006801280DD13E
:104790007D48001F0068012808D17B480068012877
:1047A00004D12221022001F051F9ECE076481838BA
:1047B0000068D8B9744814380068B8B972480C3821
:1047C0000068012812D170480838006801280DD10E
:1047D0006D48001F0068012808D16B480068012857
:1047E00004D12821401F01F031F9CCE06648183887
:1047F0000068E0B9644814380068012817D162489D
:104800000C380068012812D15F4808380068012878
:104810000DD15D48001F0068012808D15A48006882
:10482000012804D11921484201F010F9ABE05648A3
:104830001838006801281ED1534814380068012830
:1048400019D151480C380068012814D14E48083855
:10485000006880B94C48001F006801280BD14A4805
:104860000068012807D108211C2001F0EFF805207D
:1048700004F0ACFA87E044481838006801281AD1DF
:10488000414814380068012815D13F480C380068A9
:10489000012810D13C480838006860B93A48001F28
:1048A000006840B938480068012804D1042120205C
:1048B00001F0CCF867E034481838006801281BD1B3
:1048C000314814380068012816D12F480C38006888
:1048D000012811D12C480838006801280CD12A4839
:1048E000001F006840B928480068012804D102214F
:1048F000222001F0ABF846E0234818380068012870
:104900001BD1214814380068012816D11E480C38E4
:104910000068012811D11C480838006801280CD112
:104920001948001F006840B91748006828B96FF09F
:104930000301282001F08AF825E0134818380068A0
:1049400001281CD1104814380068012817D10E48DE
:104950000C380068012812D10B480838006801287B
:104960000DD10948001F0068012808D106480068D9
:1049700028B96FF01801192001F068F803E012213E
:10498000084601F063F810BD1C8242422DE9F04157
:1049900004460D460126002711E0A0471048006894
:1049A000B04209D0142004F011FA0D480068B0425A
:1049B00002D07F1C0A480668AF4200DB00E0ECE74B
:1049C00000BF6FF01801084601F040F80A2004F01B
:1049D000FDF90021084601F039F8BDE8F08100003A
:1049E0000C0241422DE9F04104460D460126002704
:1049F00011E0A04710480068B04209D0142004F02C
:104A0000E5F90D480068B04202D07F1C0A480668EC
:104A1000AF4200DB00E0ECE700BF6FF01801084692
:104A200001F014F80A2004F0D1F90021084601F041
:104A30000DF8BDE8F0810000080241422DE9F04187
:104A400004460D460126002711E0A04710480068E3
:104A5000B04209D0142004F0B9F90D480068B04202
:104A600002D07F1C0A480668AF4200DB00E0ECE79A
:104A700000BF6FF01B01084600F0E8FF0A2004F0B9
:104A8000A5F90021084600F0E1FFBDE8F081000033
:104A90000402414210B5A721632001F053F905F04B
:104AA0002FFC0021074801F0F6FE0021054801F027
:104AB000F4FE0021034801F0F2FE0021014801F05C
:104AC000F0FE10BD000C004010B5FFF7CFFA8021BA
:104AD0006B2000F0D7F8642004F078F900216B20F7
:104AE00000F0D0F8032000F08BF8002000F080F8F0
:104AF000322000F0AAF80021382000F0C3F800218D
:104B00006A2000F0BFF80021232000F0BBF88021CC
:104B1000372000F0B7F8752000F013F80446682C31
:104B20000BD101216B2000F0ADF800216C2000F0CA
:104B3000A9F8322000F089F801E0012010BD002022
:104B4000FCE770B50446FFF749FBD020FFF712FBE6
:104B5000FFF790FB2046FFF70DFBFFF78BFBFFF7FE
:104B60003DFBD120FFF706FBFFF784FB0020FFF79A
:104B7000CBFA0546FFF758FB284670BD2DE9F041FA
:104B800006460F4614461D46FFF728FB002141EA62
:104B90004601C8B2FFF7EEFAFFF76CFB20B1FFF752
:104BA00043FB0120BDE8F0813846FFF7E3FAFFF749
:104BB00061FBFFF713FB012101EB4601C8B2FFF7D0
:104BC000D9FAFFF757FB0DE0012C04D10020FFF7C5
:104BD0009BFA287003E00120FFF796FA2870601E08
:104BE000C4B26D1C002CEFD1FFF71EFB0020D9E7EB
:104BF00010B50446E006010E1C2000F043F810BD7D
:104C000010B50446E006010E1B2000F03BF810BD75
:104C100070B504460025BC2C01DB012510E0622C98
:104C200001DB02250CE02A2C01DB032508E0142C13
:104C300001DB042504E00A2C01DB052500E0062544
:104C400029461A2000F01EF870BD70B50446B4F570
:104C50007A7F01DD4FF47A74042C00DA04244FF4D7
:104C60007A7090FBF4F0401EC5B22946192000F07E
:104C700009F80546264604EBD671C1F34F00FFF74D
:104C8000C7FF70BD70B505460C46FFF7A7FAD020E8
:104C9000FFF770FAFFF7EEFA18B1FFF7C5FA012037
:104CA00070BD2846FFF766FAFFF7E4FA2046FFF7E3
:104CB00061FAFFF7DFFA18B1FFF7B6FA0120EFE764
:104CC000FFF7B2FA0020EBE72DE9F04105460E466A
:104CD00017469846FFF782FA002141EA4501C8B21B
:104CE000FFF748FAFFF7C6FA20B1FFF79DFA012057
:104CF000BDE8F0813046FFF73DFAFFF7BBFA00242C
:104D00000CE018F80400FFF735FAFFF7B3FA18B112
:104D1000FFF78AFA0120EBE7601CC4B2BC42F0DB6B
:104D2000FFF782FA0020E3E74A0A52020243014BEE
:104D30001A60704708ED00E000BFFEE730B503469B
:104D40000C4642B1521C03E014F8015B03F8015B0E
:104D5000551E2A1EF8D130BD7047000070B50021E5
:104D600000230F22C4781CB3174C246804F4E064B9
:104D7000C4F5E064C4F30721C1F10404E3B20A41BD
:104D800044789C40E1B28478144021430C07210E02
:104D90000E4C05786155047804F01F050124AC40E1
:104DA00005786D11AD0005F1E025C5F8004109E079
:104DB000047804F01F050124AC40054D06787611F7
:104DC00045F8264070BD00000CED00E000E400E076
:104DD00080E100E002490143024A1160704700008F
:104DE0000000FA050CED00E070B500240CE0002591
:104DF00006E00020074901EBC5010855681CC5B253
:104E0000802DF6DB601CC4B2082CF0DB00F0D8F873
:104E100070BD0000A4010020F0B514460B46CF176A
:104E200001EB5777C7F3C702CF1701EB5777FF1096
:104E3000A1EBC707FEB20123B340DDB24CB1134B67
:104E400003EBC0039B5C2B43104F07EBC007BB5425
:104E50001AE00E4B03EBC0039B5CDB430B4F07EBED
:104E6000C007BB54094B03EBC0039B5C2B43074FAC
:104E700007EBC007BB54054B03EBC0039B5CDB4354
:104E8000024F07EBC007BB54F0BD0000A401002097
:104E90001CB50121482000F0B5FAF0200090012057
:104EA0008DF8040000208DF8060003208DF8050021
:104EB00001208DF8070069464048FEF7C5FF202114
:104EC0003E48FFF735F8C82003F080FF20213B481B
:104ED000FFF730F80021AE2000F0DEF9002108468F
:104EE00000F0DAF90021102000F0D6F9002140206E
:104EF00000F0D2F90021812000F0CEF90021CF206E
:104F000000F0CAF90021A12000F0C6F90021C82054
:104F100000F0C2F90021A62000F0BEF90021A8206F
:104F200000F0BAF900213F2000F0B6F90021D320AB
:104F300000F0B2F90021084600F0AEF90021D520BA
:104F400000F0AAF90021802000F0A6F90021D92064
:104F500000F0A2F90021F12000F09EF90021DA20F2
:104F600000F09AF90021122000F096F90021DB20D0
:104F700000F092F90021402000F08EF9002120205D
:104F800000F08AF90021022000F086F900218D202E
:104F900000F082F90021142000F07EF90021A42005
:104FA00000F07AF90021A62000F076F9FFF71CFF47
:104FB0000021AF2000F070F91CBD00000018024075
:104FC00070B500241CE004F1B001C8B2002100F06B
:104FD00063F90021084600F05FF90021102000F07D
:104FE0005BF9002508E0084901EBC501085D0121D6
:104FF00000F052F9681CC5B2802DF4DB601CC4B20D
:10500000082CE0DB70BD0000A40100202DE9FE4F5C
:105010000746884692461C460197CDF80080082C2A
:1050200002D14FF006091FE02046E31704EB53734B
:10503000DB1021464FEAE47C04EB5C7C4FEAEC0C8D
:10504000A4EBCC0CBCF1000F02D04FF0010C01E03E
:105050004FF0000C6344224604EBD27C4FEA6C0C08
:1050600003FB0CF303F0FF09AAF12000C6B20025F0
:105070005EE0082C07D106EB46002F4901EB40000B
:1050800010F805B01DE00C2C07D106EB46002B49AB
:1050900001EB800010F805B013E0102C05D1284872
:1050A00000EB061010F805B00BE0182C07D106EB4A
:1050B000C600244901EB800010F805B001E0BDE80E
:1050C000FE8F002002901CE00BF0010028B1414649
:1050D00038460C9AFFF7A0FE09E00C9808B90120A9
:1050E00000E00020024641463846FFF795FE4FEAB1
:1050F0006B0B08F1010000F0FF080298401CC0B2E1
:10510000029002980828DFDB781CC7B2082C0BD06D
:1051100004EBD4714A100199791A8A4204D1019F93
:1051200000980830C0B20090DDF80080681CC5B25D
:105130004D459EDB00BFC2E74ECE000876D000088A
:10514000EAD40008DADA00082DE9FC4F0746884661
:1051500016461C46BB46CDF804802046E21704EBF9
:105160005272D2102146E31704EB5373DB10A4EB09
:10517000C3030BB1012300E000231A44624392B23F
:105180000092002555E0102C05D12C4800EB46106C
:1051900010F805A01BE0182C07D106EBC600284923
:1051A00001EBC00010F805A011E0202C05D1254826
:1051B00000EBC61010F805A009E0402C05D12248EC
:1051C00000EB462010F805A001E0BDE8FC8F4FF091
:1051D00000091CE00AF0010028B1414638460B9A4C
:1051E000FFF71AFE09E00B9808B9012000E0002043
:1051F000024641463846FFF70FFE4FEA6A0A08F1B9
:10520000010000F0FF0809F1010000F0FF09B9F109
:10521000080FDFDB781CC7B2A7EB0B00A04204D15C
:105220005F4601980830C0B20190DDF80480681C28
:1052300085B200988542A6DB00BFC6E736E80008C5
:10524000F6E800083EE90008BEE900082DE9F8414B
:1052500006460F4614461D46DDF81C8013E0CDF8C7
:10526000008022782B4639463046FFF7CFFE082DC6
:1052700002D1B01DC6B205E0284605EBD07106EBA1
:105280006101CEB2641C2078202802DB20787E28C1
:10529000E5DDBDE8F881000070B504460E4626B194
:1052A00010211848FEF746FE03E010211548FEF7CE
:1052B0003FFE02211448FEF73BFE002517E0802147
:1052C0001048FEF735FE04F0800020B140210D4863
:1052D000FEF730FE03E040210A48FEF729FE802158
:1052E0000848FEF727FE6006040E681CC5B2082DAC
:1052F000E5DB02210448FEF71DFE10210148FEF700
:1053000019FE70BD00180240000C024070B5044642
:105310000125204E3560204E3560002008E01D4DEF
:105320002D6805EB85056D001A4E3560451CE8B209
:105330009842F4DB002008E0174D2D6805EB850549
:105340006D00154E3560451CE8B25D1E8542F3DCEC
:1053500000201CE00F4D2D68B2FBF5F605FB16256D
:105360000D4E3668B5FBF6F530350E18A555094DCE
:105370002D680A26B5FBF6F5064E356035462D68D4
:105380000A26B5FBF6F5044E3560451CE8B2984296
:10539000E0DB70BD6C0000207000002070B504469A
:1053A000FFF79EF88020FFF767F8FFF7E5F8204643
:1053B000FFF762F8FFF7E0F8FFF792F88120FFF7B8
:1053C0005BF8FFF7D9F80020FFF720F80546FFF754
:1053D000ADF8284670BD70B505460C46FFF780F85D
:1053E0008020FFF749F8FFF7C7F82846FFF744F891
:1053F000FFF7C2F82046FFF73FF8FFF7BDF8FFF7C9
:1054000095F870BD29B1064A12680243044B1A6030
:1054100004E0034A12688243014B1A60704700009F
:105420003038024029B1064A12680243044B1A6020
:1054300004E0034A12688243014B1A60704700007F
:105440004038024029B1064A12680243044B1A60F0
:1054500004E0034A12688243014B1A60704700005F
:1054600044380240F0B50021002200240225002625
:105470000223324F3F6807F00C0121B1042905D007
:10548000082937D105E02E4F076036E02D4F076021
:1054900033E02A4F3F1F3F68C7F38056274F3F1F17
:1054A0003F6807F03F036EB1264FB7FBF3F7DFF815
:1054B0008CC0ACF1040CDCF800C0CCF3881C07FBFA
:1054C0000CF40CE01E4FB7FBF3F7DFF870C0ACF143
:1054D000040CDCF800C0CCF3881C07FB0CF4174F5D
:1054E0003F1F3F68C7F301477F1C7D00B4FBF5F702
:1054F000076002E0124F076000BF00BF0F4F3F6818
:1055000007F0F0010909104F7A5C0768D74047603F
:105510000A4F3F6807F4E051890A0B4F7A5C4768ED
:10552000D7408760054F3F6807F46041490B064F3D
:105530007A5C4768D740C760F0BD00000838024079
:105540000024F40000127A00D30000200448006810
:1055500020F0C000024908600846006808607047F3
:10556000001802400548006820F0C00003490860A8
:105570000846006840F0400008607047001802408C
:1055800030B500228B071C0F0F2303FA04F20B4BDC
:105590008C1053F824309343084C8D1044F8253078
:1055A00023468C1053F824308C07240F00FA04F49F
:1055B0002343024C8D1044F8253030BD083801409B
:1055C00010B52DED0A8B214A2149224804F05CFFD9
:1055D000C8BB214800682149884202D100201E49E9
:1055E00008601A4890ED000ABDEEC00A10EE100ADD
:1055F00000B21B4908801848006807F04EF841ECDB
:105600001C0B9FED180B53EC102B07F0ADF841EC81
:105610001A0B1348B0F9000007F03FF841EC1B0BE0
:1056200053EC1A2B07F0ACFA41EC190B9FED0F0B62
:1056300053EC102B07F0A4FA41EC180B06F0D0FF46
:1056400000B207490880BDEC0A8B10BD6001002044
:105650005C01002058010020BC000020C0D40100E3
:105660006E0100202D431CEBE2361A3F5C8FC2F521
:10567000285CDF3F10B5B948006801281BD1B74846
:10568000001F0068012816D1B4480838006890B996
:10569000B2480C38006870B9B04814380068012866
:1056A00009D1AE4818380068012804D11C210846E9
:1056B00000F0CCF950E1A9481838006801281ED143
:1056C000A64814380068012819D1A4480C3800688D
:1056D000A8B9A24808380068012810D19F48001FC7
:1056E000006801280BD19D480068012807D12621B8
:1056F000122000F0ABF9052003F068FB2CE197487D
:105700001838006801281AD1944814380068B0B9D4
:1057100092480C38006890B9904808380068012811
:105720000DD18E48001F0068012808D18B48006801
:10573000012804D12A210E2000F088F90CE18748C5
:105740001838006801281BD1844814380068B8B99B
:1057500082480C380068012812D180480838006857
:1057600001280DD17D48001F0068012808D17B4821
:105770000068012804D12C210C2000F067F9EBE02F
:10578000764818380068D8B9744814380068B8B931
:1057900072480C380068012812D170480838006837
:1057A00001280DD16D48001F0068012808D16B4801
:1057B0000068012804D13221062000F047F9CBE02F
:1057C000664818380068E0B9644814380068012851
:1057D00017D162480C380068012812D15F48083898
:1057E000006801280DD15D48001F0068012808D11C
:1057F0005A480068012804D12321484200F026F9C4
:10580000AAE056481838006801281ED153481438B9
:105810000068012819D151480C380068012814D1BA
:105820004E480838006880B94C48001F00680128BD
:105830000BD14A480068012807D11221262000F028
:1058400005F9052003F0C2FA86E0444818380068DC
:1058500001281AD1414814380068012815D13F4861
:105860000C380068012810D13C480838006860B93D
:105870003A48001F006840B938480068012804D140
:105880000E212A2000F0E2F866E03448183800685B
:1058900001281BD1314814380068012816D12F483F
:1058A0000C380068012811D12C48083800680128FC
:1058B0000CD12A48001F006840B928480068012818
:1058C00004D10C212C2000F0C1F845E02348183801
:1058D000006801281AD1214814380068012815D120
:1058E0001E480C380068012810D11C480838006890
:1058F00001280BD11948001F006838B91748006803
:1059000020B90621322000F0A1F825E0134818380C
:10591000006801281CD1114814380068012817D1EB
:105920000E480C380068012812D10C48083800686D
:1059300001280DD10948001F0068012808D1074837
:10594000006828B96FF02201232000F07FF803E0FF
:105950001C21084600F07AF810BD00001C8242426B
:105960000CB50020019000903448006840F480306D
:105970003249086000BF3148006800F400300090F0
:105980000198401C0190009818B90198B0F5A04FFB
:10599000F1D12A48006800F4003010B101200090D5
:1059A00001E0002000900098012846D123484030B3
:1059B000006840F08050214940310860204800686C
:1059C00040F440401E4908601C48083000681B49EC
:1059D000083108600846006840F400400860084646
:1059E000006840F4A05008601648091F0860081FAE
:1059F000006840F08070091F086000BF0F48006811
:105A000000F000700028F9D040F205700E490860DF
:105A10000A480830006820F003000849083108608F
:105A20000846006840F00200086000BF03480830E4
:105A3000006800F00C000828F8D10CBD00380240C6
:105A40000070004008544007003C024070B5044616
:105A50000D46002C14DA00202C49086001202C4946
:105A6000C1F8B8022B49086000202B49C1F8800218
:105A700061422A4800F00FFF6142284800F00DFF04
:105A8000002D14DA01202649086000202549C1F8BC
:105A900090022549086001202449C1F8A00269420A
:105AA0001E4800F0FCFE69421C4800F0FAFE002C83
:105AB00014DB01201549086000201549C1F8B8021F
:105AC0001449086001201449C1F880022146134896
:105AD00000F0E1FE2146114800F0DFFE002D14DB4E
